{
  "_format": "hh-sol-artifact-1",
  "contractName": "NFTPunk",
  "sourceName": "contracts/NFTPunk.sol",
  "abi": [
    {
      "inputs": [
        {
          "internalType": "string",
          "name": "name",
          "type": "string"
        },
        {
          "internalType": "string",
          "name": "symbol",
          "type": "string"
        }
      ],
      "stateMutability": "nonpayable",
      "type": "constructor"
    },
    {
      "anonymous": false,
      "inputs": [
        {
          "indexed": true,
          "internalType": "address",
          "name": "owner",
          "type": "address"
        },
        {
          "indexed": true,
          "internalType": "address",
          "name": "approved",
          "type": "address"
        },
        {
          "indexed": true,
          "internalType": "uint256",
          "name": "tokenId",
          "type": "uint256"
        }
      ],
      "name": "Approval",
      "type": "event"
    },
    {
      "anonymous": false,
      "inputs": [
        {
          "indexed": true,
          "internalType": "address",
          "name": "owner",
          "type": "address"
        },
        {
          "indexed": true,
          "internalType": "address",
          "name": "operator",
          "type": "address"
        },
        {
          "indexed": false,
          "internalType": "bool",
          "name": "approved",
          "type": "bool"
        }
      ],
      "name": "ApprovalForAll",
      "type": "event"
    },
    {
      "anonymous": false,
      "inputs": [
        {
          "indexed": true,
          "internalType": "address",
          "name": "previousOwner",
          "type": "address"
        },
        {
          "indexed": true,
          "internalType": "address",
          "name": "newOwner",
          "type": "address"
        }
      ],
      "name": "OwnershipTransferred",
      "type": "event"
    },
    {
      "anonymous": false,
      "inputs": [
        {
          "indexed": true,
          "internalType": "address",
          "name": "from",
          "type": "address"
        },
        {
          "indexed": true,
          "internalType": "address",
          "name": "to",
          "type": "address"
        },
        {
          "indexed": true,
          "internalType": "uint256",
          "name": "tokenId",
          "type": "uint256"
        }
      ],
      "name": "Transfer",
      "type": "event"
    },
    {
      "anonymous": false,
      "inputs": [
        {
          "indexed": false,
          "internalType": "uint256",
          "name": "tokenId",
          "type": "uint256"
        },
        {
          "indexed": false,
          "internalType": "address",
          "name": "minter",
          "type": "address"
        },
        {
          "indexed": false,
          "internalType": "string",
          "name": "tokenURI",
          "type": "string"
        }
      ],
      "name": "nftMinted",
      "type": "event"
    },
    {
      "anonymous": false,
      "inputs": [
        {
          "indexed": false,
          "internalType": "uint256",
          "name": "tokenId",
          "type": "uint256"
        },
        {
          "indexed": false,
          "internalType": "string",
          "name": "tokenUri",
          "type": "string"
        }
      ],
      "name": "setTokenUri",
      "type": "event"
    },
    {
      "inputs": [
        {
          "internalType": "uint256",
          "name": "",
          "type": "uint256"
        }
      ],
      "name": "NFTDetailsList",
      "outputs": [
        {
          "internalType": "string",
          "name": "uri",
          "type": "string"
        },
        {
          "internalType": "address",
          "name": "owner",
          "type": "address"
        },
        {
          "internalType": "uint256",
          "name": "tokenId",
          "type": "uint256"
        },
        {
          "internalType": "uint256",
          "name": "timeStamp",
          "type": "uint256"
        }
      ],
      "stateMutability": "view",
      "type": "function"
    },
    {
      "inputs": [
        {
          "internalType": "address",
          "name": "to",
          "type": "address"
        },
        {
          "internalType": "uint256",
          "name": "tokenId",
          "type": "uint256"
        }
      ],
      "name": "approve",
      "outputs": [],
      "stateMutability": "nonpayable",
      "type": "function"
    },
    {
      "inputs": [
        {
          "internalType": "address",
          "name": "owner",
          "type": "address"
        }
      ],
      "name": "balanceOf",
      "outputs": [
        {
          "internalType": "uint256",
          "name": "",
          "type": "uint256"
        }
      ],
      "stateMutability": "view",
      "type": "function"
    },
    {
      "inputs": [],
      "name": "getAllNFTDetails",
      "outputs": [
        {
          "components": [
            {
              "internalType": "string",
              "name": "uri",
              "type": "string"
            },
            {
              "internalType": "address",
              "name": "owner",
              "type": "address"
            },
            {
              "internalType": "uint256",
              "name": "tokenId",
              "type": "uint256"
            },
            {
              "internalType": "uint256",
              "name": "timeStamp",
              "type": "uint256"
            }
          ],
          "internalType": "struct NFTPunk.NFTDetails[]",
          "name": "",
          "type": "tuple[]"
        }
      ],
      "stateMutability": "view",
      "type": "function"
    },
    {
      "inputs": [
        {
          "internalType": "uint256",
          "name": "tokenId",
          "type": "uint256"
        }
      ],
      "name": "getApproved",
      "outputs": [
        {
          "internalType": "address",
          "name": "",
          "type": "address"
        }
      ],
      "stateMutability": "view",
      "type": "function"
    },
    {
      "inputs": [],
      "name": "getTotalNUmberDeployedNFT",
      "outputs": [
        {
          "internalType": "uint256",
          "name": "",
          "type": "uint256"
        }
      ],
      "stateMutability": "view",
      "type": "function"
    },
    {
      "inputs": [
        {
          "internalType": "address",
          "name": "owner",
          "type": "address"
        },
        {
          "internalType": "address",
          "name": "operator",
          "type": "address"
        }
      ],
      "name": "isApprovedForAll",
      "outputs": [
        {
          "internalType": "bool",
          "name": "",
          "type": "bool"
        }
      ],
      "stateMutability": "view",
      "type": "function"
    },
    {
      "inputs": [],
      "name": "maxNFT",
      "outputs": [
        {
          "internalType": "uint256",
          "name": "",
          "type": "uint256"
        }
      ],
      "stateMutability": "view",
      "type": "function"
    },
    {
      "inputs": [],
      "name": "maxNFTPerAccount",
      "outputs": [
        {
          "internalType": "uint256",
          "name": "",
          "type": "uint256"
        }
      ],
      "stateMutability": "view",
      "type": "function"
    },
    {
      "inputs": [
        {
          "internalType": "string",
          "name": "tokenURI",
          "type": "string"
        }
      ],
      "name": "mint",
      "outputs": [],
      "stateMutability": "payable",
      "type": "function"
    },
    {
      "inputs": [],
      "name": "name",
      "outputs": [
        {
          "internalType": "string",
          "name": "",
          "type": "string"
        }
      ],
      "stateMutability": "view",
      "type": "function"
    },
    {
      "inputs": [],
      "name": "owner",
      "outputs": [
        {
          "internalType": "address",
          "name": "",
          "type": "address"
        }
      ],
      "stateMutability": "view",
      "type": "function"
    },
    {
      "inputs": [
        {
          "internalType": "uint256",
          "name": "tokenId",
          "type": "uint256"
        }
      ],
      "name": "ownerOf",
      "outputs": [
        {
          "internalType": "address",
          "name": "",
          "type": "address"
        }
      ],
      "stateMutability": "view",
      "type": "function"
    },
    {
      "inputs": [],
      "name": "priceToMint",
      "outputs": [
        {
          "internalType": "uint256",
          "name": "",
          "type": "uint256"
        }
      ],
      "stateMutability": "view",
      "type": "function"
    },
    {
      "inputs": [],
      "name": "renounceOwnership",
      "outputs": [],
      "stateMutability": "nonpayable",
      "type": "function"
    },
    {
      "inputs": [
        {
          "internalType": "address",
          "name": "from",
          "type": "address"
        },
        {
          "internalType": "address",
          "name": "to",
          "type": "address"
        },
        {
          "internalType": "uint256",
          "name": "tokenId",
          "type": "uint256"
        }
      ],
      "name": "safeTransferFrom",
      "outputs": [],
      "stateMutability": "nonpayable",
      "type": "function"
    },
    {
      "inputs": [
        {
          "internalType": "address",
          "name": "from",
          "type": "address"
        },
        {
          "internalType": "address",
          "name": "to",
          "type": "address"
        },
        {
          "internalType": "uint256",
          "name": "tokenId",
          "type": "uint256"
        },
        {
          "internalType": "bytes",
          "name": "_data",
          "type": "bytes"
        }
      ],
      "name": "safeTransferFrom",
      "outputs": [],
      "stateMutability": "nonpayable",
      "type": "function"
    },
    {
      "inputs": [
        {
          "internalType": "address",
          "name": "operator",
          "type": "address"
        },
        {
          "internalType": "bool",
          "name": "approved",
          "type": "bool"
        }
      ],
      "name": "setApprovalForAll",
      "outputs": [],
      "stateMutability": "nonpayable",
      "type": "function"
    },
    {
      "inputs": [
        {
          "internalType": "bytes4",
          "name": "interfaceId",
          "type": "bytes4"
        }
      ],
      "name": "supportsInterface",
      "outputs": [
        {
          "internalType": "bool",
          "name": "",
          "type": "bool"
        }
      ],
      "stateMutability": "view",
      "type": "function"
    },
    {
      "inputs": [],
      "name": "symbol",
      "outputs": [
        {
          "internalType": "string",
          "name": "",
          "type": "string"
        }
      ],
      "stateMutability": "view",
      "type": "function"
    },
    {
      "inputs": [
        {
          "internalType": "uint256",
          "name": "",
          "type": "uint256"
        }
      ],
      "name": "tokenIdToUri",
      "outputs": [
        {
          "internalType": "string",
          "name": "",
          "type": "string"
        }
      ],
      "stateMutability": "view",
      "type": "function"
    },
    {
      "inputs": [
        {
          "internalType": "uint256",
          "name": "tokenID",
          "type": "uint256"
        }
      ],
      "name": "tokenURI",
      "outputs": [
        {
          "internalType": "string",
          "name": "",
          "type": "string"
        }
      ],
      "stateMutability": "view",
      "type": "function"
    },
    {
      "inputs": [],
      "name": "totalSuply",
      "outputs": [
        {
          "internalType": "uint256",
          "name": "",
          "type": "uint256"
        }
      ],
      "stateMutability": "view",
      "type": "function"
    },
    {
      "inputs": [
        {
          "internalType": "address",
          "name": "from",
          "type": "address"
        },
        {
          "internalType": "address",
          "name": "to",
          "type": "address"
        },
        {
          "internalType": "uint256",
          "name": "tokenId",
          "type": "uint256"
        }
      ],
      "name": "transferFrom",
      "outputs": [],
      "stateMutability": "nonpayable",
      "type": "function"
    },
    {
      "inputs": [
        {
          "internalType": "address",
          "name": "newOwner",
          "type": "address"
        }
      ],
      "name": "transferOwnership",
      "outputs": [],
      "stateMutability": "nonpayable",
      "type": "function"
    },
    {
      "inputs": [
        {
          "internalType": "address",
          "name": "",
          "type": "address"
        }
      ],
      "name": "walletsMint",
      "outputs": [
        {
          "internalType": "uint256",
          "name": "",
          "type": "uint256"
        }
      ],
      "stateMutability": "view",
      "type": "function"
    }
  ],
  "bytecode": "0x60806040523480156200001157600080fd5b5060405162003bf638038062003bf68339818101604052810190620000379190620002ac565b81818160009080519060200190620000519291906200018a565b5080600190805190602001906200006a9291906200018a565b5050506200008d62000081620000bc60201b60201c565b620000c460201b60201c565b6113886007819055506000600881905550662386f26fc100006009819055506002600a8190555050506200048f565b600033905090565b6000600660009054906101000a900473ffffffffffffffffffffffffffffffffffffffff16905081600660006101000a81548173ffffffffffffffffffffffffffffffffffffffff021916908373ffffffffffffffffffffffffffffffffffffffff1602179055508173ffffffffffffffffffffffffffffffffffffffff168173ffffffffffffffffffffffffffffffffffffffff167f8be0079c531659141344cd1fd0a4f28419497f9722a3daafe3b4186f6b6457e060405160405180910390a35050565b8280546200019890620003b4565b90600052602060002090601f016020900481019282620001bc576000855562000208565b82601f10620001d757805160ff191683800117855562000208565b8280016001018555821562000208579182015b8281111562000207578251825591602001919060010190620001ea565b5b5090506200021791906200021b565b5090565b5b80821115620002365760008160009055506001016200021c565b5090565b6000620002516200024b8462000348565b6200031f565b9050828152602081018484840111156200026a57600080fd5b620002778482856200037e565b509392505050565b600082601f8301126200029157600080fd5b8151620002a38482602086016200023a565b91505092915050565b60008060408385031215620002c057600080fd5b600083015167ffffffffffffffff811115620002db57600080fd5b620002e9858286016200027f565b925050602083015167ffffffffffffffff8111156200030757600080fd5b62000315858286016200027f565b9150509250929050565b60006200032b6200033e565b9050620003398282620003ea565b919050565b6000604051905090565b600067ffffffffffffffff8211156200036657620003656200044f565b5b62000371826200047e565b9050602081019050919050565b60005b838110156200039e57808201518184015260208101905062000381565b83811115620003ae576000848401525b50505050565b60006002820490506001821680620003cd57607f821691505b60208210811415620003e457620003e362000420565b5b50919050565b620003f5826200047e565b810181811067ffffffffffffffff821117156200041757620004166200044f565b5b80604052505050565b7f4e487b7100000000000000000000000000000000000000000000000000000000600052602260045260246000fd5b7f4e487b7100000000000000000000000000000000000000000000000000000000600052604160045260246000fd5b6000601f19601f8301169050919050565b613757806200049f6000396000f3fe6080604052600436106101815760003560e01c806370a08231116100d1578063b88d4fde1161008a578063daef841911610064578063daef84191461059e578063e456b01c146105c9578063e985e9c5146105f4578063f2fde38b1461063157610181565b8063b88d4fde1461051c578063c87b56dd14610545578063d85d3d271461058257610181565b806370a082311461041e578063715018a61461045b5780638da5cb5b1461047257806395d89b411461049d578063a22cb465146104c8578063a2a96799146104f157610181565b806323b872dd1161013e5780634dc1dbec116101185780634dc1dbec14610339578063511295c4146103645780636352211e146103a15780636e539e1a146103de57610181565b806323b872dd146102bc57806342842e0e146102e557806343e3dbe61461030e57610181565b806301ffc9a71461018657806306fdde03146101c3578063081812fc146101ee578063095ea7b31461022b578063119d209a1461025457806312dc49cd14610291575b600080fd5b34801561019257600080fd5b506101ad60048036038101906101a8919061250a565b61065a565b6040516101ba9190612aed565b60405180910390f35b3480156101cf57600080fd5b506101d861073c565b6040516101e59190612b08565b60405180910390f35b3480156101fa57600080fd5b506102156004803603810190610210919061259d565b6107ce565b6040516102229190612a64565b60405180910390f35b34801561023757600080fd5b50610252600480360381019061024d91906124ce565b610853565b005b34801561026057600080fd5b5061027b6004803603810190610276919061259d565b61096b565b6040516102889190612b08565b60405180910390f35b34801561029d57600080fd5b506102a6610a0b565b6040516102b39190612df6565b60405180910390f35b3480156102c857600080fd5b506102e360048036038101906102de91906123c8565b610a15565b005b3480156102f157600080fd5b5061030c600480360381019061030791906123c8565b610a75565b005b34801561031a57600080fd5b50610323610a95565b6040516103309190612acb565b60405180910390f35b34801561034557600080fd5b5061034e610bf0565b60405161035b9190612df6565b60405180910390f35b34801561037057600080fd5b5061038b60048036038101906103869190612363565b610bf6565b6040516103989190612df6565b60405180910390f35b3480156103ad57600080fd5b506103c860048036038101906103c3919061259d565b610c0e565b6040516103d59190612a64565b60405180910390f35b3480156103ea57600080fd5b506104056004803603810190610400919061259d565b610cc0565b6040516104159493929190612b2a565b60405180910390f35b34801561042a57600080fd5b5061044560048036038101906104409190612363565b610da8565b6040516104529190612df6565b60405180910390f35b34801561046757600080fd5b50610470610e60565b005b34801561047e57600080fd5b50610487610ee8565b6040516104949190612a64565b60405180910390f35b3480156104a957600080fd5b506104b2610f12565b6040516104bf9190612b08565b60405180910390f35b3480156104d457600080fd5b506104ef60048036038101906104ea9190612492565b610fa4565b005b3480156104fd57600080fd5b50610506610fba565b6040516105139190612df6565b60405180910390f35b34801561052857600080fd5b50610543600480360381019061053e9190612417565b610fc0565b005b34801561055157600080fd5b5061056c6004803603810190610567919061259d565b611022565b6040516105799190612b08565b60405180910390f35b61059c6004803603810190610597919061255c565b61110f565b005b3480156105aa57600080fd5b506105b36113f9565b6040516105c09190612df6565b60405180910390f35b3480156105d557600080fd5b506105de6113ff565b6040516105eb9190612df6565b60405180910390f35b34801561060057600080fd5b5061061b6004803603810190610616919061238c565b611405565b6040516106289190612aed565b60405180910390f35b34801561063d57600080fd5b5061065860048036038101906106539190612363565b611499565b005b60007f80ac58cd000000000000000000000000000000000000000000000000000000007bffffffffffffffffffffffffffffffffffffffffffffffffffffffff1916827bffffffffffffffffffffffffffffffffffffffffffffffffffffffff1916148061072557507f5b5e139f000000000000000000000000000000000000000000000000000000007bffffffffffffffffffffffffffffffffffffffffffffffffffffffff1916827bffffffffffffffffffffffffffffffffffffffffffffffffffffffff1916145b80610735575061073482611591565b5b9050919050565b60606000805461074b906130c8565b80601f0160208091040260200160405190810160405280929190818152602001828054610777906130c8565b80156107c45780601f10610799576101008083540402835291602001916107c4565b820191906000526020600020905b8154815290600101906020018083116107a757829003601f168201915b5050505050905090565b60006107d9826115fb565b610818576040517f08c379a000000000000000000000000000000000000000000000000000000000815260040161080f90612cf6565b60405180910390fd5b6004600083815260200190815260200160002060009054906101000a900473ffffffffffffffffffffffffffffffffffffffff169050919050565b600061085e82610c0e565b90508073ffffffffffffffffffffffffffffffffffffffff168373ffffffffffffffffffffffffffffffffffffffff1614156108cf576040517f08c379a00000000000000000000000000000000000000000000000000000000081526004016108c690612d76565b60405180910390fd5b8073ffffffffffffffffffffffffffffffffffffffff166108ee611667565b73ffffffffffffffffffffffffffffffffffffffff16148061091d575061091c81610917611667565b611405565b5b61095c576040517f08c379a000000000000000000000000000000000000000000000000000000000815260040161095390612c76565b60405180910390fd5b610966838361166f565b505050565b600c602052806000526040600020600091509050805461098a906130c8565b80601f01602080910402602001604051908101604052809291908181526020018280546109b6906130c8565b8015610a035780601f106109d857610100808354040283529160200191610a03565b820191906000526020600020905b8154815290600101906020018083116109e657829003601f168201915b505050505081565b6000600854905090565b610a26610a20611667565b82611728565b610a65576040517f08c379a0000000000000000000000000000000000000000000000000000000008152600401610a5c90612d96565b60405180910390fd5b610a70838383611806565b505050565b610a9083838360405180602001604052806000815250610fc0565b505050565b6060600d805480602002602001604051908101604052809291908181526020016000905b82821015610be75783829060005260206000209060040201604051806080016040529081600082018054610aec906130c8565b80601f0160208091040260200160405190810160405280929190818152602001828054610b18906130c8565b8015610b655780601f10610b3a57610100808354040283529160200191610b65565b820191906000526020600020905b815481529060010190602001808311610b4857829003601f168201915b505050505081526020016001820160009054906101000a900473ffffffffffffffffffffffffffffffffffffffff1673ffffffffffffffffffffffffffffffffffffffff1673ffffffffffffffffffffffffffffffffffffffff1681526020016002820154815260200160038201548152505081526020019060010190610ab9565b50505050905090565b60095481565b600b6020528060005260406000206000915090505481565b6000806002600084815260200190815260200160002060009054906101000a900473ffffffffffffffffffffffffffffffffffffffff169050600073ffffffffffffffffffffffffffffffffffffffff168173ffffffffffffffffffffffffffffffffffffffff161415610cb7576040517f08c379a0000000000000000000000000000000000000000000000000000000008152600401610cae90612cb6565b60405180910390fd5b80915050919050565b600d8181548110610cd057600080fd5b9060005260206000209060040201600091509050806000018054610cf3906130c8565b80601f0160208091040260200160405190810160405280929190818152602001828054610d1f906130c8565b8015610d6c5780601f10610d4157610100808354040283529160200191610d6c565b820191906000526020600020905b815481529060010190602001808311610d4f57829003601f168201915b5050505050908060010160009054906101000a900473ffffffffffffffffffffffffffffffffffffffff16908060020154908060030154905084565b60008073ffffffffffffffffffffffffffffffffffffffff168273ffffffffffffffffffffffffffffffffffffffff161415610e19576040517f08c379a0000000000000000000000000000000000000000000000000000000008152600401610e1090612c96565b60405180910390fd5b600360008373ffffffffffffffffffffffffffffffffffffffff1673ffffffffffffffffffffffffffffffffffffffff168152602001908152602001600020549050919050565b610e68611667565b73ffffffffffffffffffffffffffffffffffffffff16610e86610ee8565b73ffffffffffffffffffffffffffffffffffffffff1614610edc576040517f08c379a0000000000000000000000000000000000000000000000000000000008152600401610ed390612d16565b60405180910390fd5b610ee66000611a6d565b565b6000600660009054906101000a900473ffffffffffffffffffffffffffffffffffffffff16905090565b606060018054610f21906130c8565b80601f0160208091040260200160405190810160405280929190818152602001828054610f4d906130c8565b8015610f9a5780601f10610f6f57610100808354040283529160200191610f9a565b820191906000526020600020905b815481529060010190602001808311610f7d57829003601f168201915b5050505050905090565b610fb6610faf611667565b8383611b33565b5050565b60085481565b610fd1610fcb611667565b83611728565b611010576040517f08c379a000000000000000000000000000000000000000000000000000000000815260040161100790612d96565b60405180910390fd5b61101c84848484611ca0565b50505050565b606061102d826115fb565b61106c576040517f08c379a000000000000000000000000000000000000000000000000000000000815260040161106390612dd6565b60405180910390fd5b600c6000838152602001908152602001600020805461108a906130c8565b80601f01602080910402602001604051908101604052809291908181526020018280546110b6906130c8565b80156111035780601f106110d857610100808354040283529160200191611103565b820191906000526020600020905b8154815290600101906020018083116110e657829003601f168201915b50505050509050919050565b6009543414611153576040517f08c379a000000000000000000000000000000000000000000000000000000000815260040161114a90612db6565b60405180910390fd5b600754600854111561119a576040517f08c379a000000000000000000000000000000000000000000000000000000000815260040161119190612b96565b60405180910390fd5b600a54600b60003373ffffffffffffffffffffffffffffffffffffffff1673ffffffffffffffffffffffffffffffffffffffff16815260200190815260200160002054111561121e576040517f08c379a000000000000000000000000000000000000000000000000000000000815260040161121590612d56565b60405180910390fd5b6000600854905061122f3382611cfc565b7fae5290d224a5a20c2ebad98803225e0ce8ec72a08be491017cf0324db413feb781338460405161126293929190612e11565b60405180910390a160016008546112799190612f88565b6008819055506112898183611d1a565b7f57f7789e04e67a1d42425c71a3865e1554c090f4b131d4870265ea8ade75880c81836040516112ba929190612e4f565b60405180910390a16001600b60003373ffffffffffffffffffffffffffffffffffffffff1673ffffffffffffffffffffffffffffffffffffffff16815260200190815260200160002060008282546113129190612f88565b92505081905550600d60405180608001604052808481526020013373ffffffffffffffffffffffffffffffffffffffff1681526020018381526020014281525090806001815401808255809150506001900390600052602060002090600402016000909190919091506000820151816000019080519060200190611397929190612187565b5060208201518160010160006101000a81548173ffffffffffffffffffffffffffffffffffffffff021916908373ffffffffffffffffffffffffffffffffffffffff160217905550604082015181600201556060820151816003015550505050565b600a5481565b60075481565b6000600560008473ffffffffffffffffffffffffffffffffffffffff1673ffffffffffffffffffffffffffffffffffffffff16815260200190815260200160002060008373ffffffffffffffffffffffffffffffffffffffff1673ffffffffffffffffffffffffffffffffffffffff16815260200190815260200160002060009054906101000a900460ff16905092915050565b6114a1611667565b73ffffffffffffffffffffffffffffffffffffffff166114bf610ee8565b73ffffffffffffffffffffffffffffffffffffffff1614611515576040517f08c379a000000000000000000000000000000000000000000000000000000000815260040161150c90612d16565b60405180910390fd5b600073ffffffffffffffffffffffffffffffffffffffff168173ffffffffffffffffffffffffffffffffffffffff161415611585576040517f08c379a000000000000000000000000000000000000000000000000000000000815260040161157c90612bb6565b60405180910390fd5b61158e81611a6d565b50565b60007f01ffc9a7000000000000000000000000000000000000000000000000000000007bffffffffffffffffffffffffffffffffffffffffffffffffffffffff1916827bffffffffffffffffffffffffffffffffffffffffffffffffffffffff1916149050919050565b60008073ffffffffffffffffffffffffffffffffffffffff166002600084815260200190815260200160002060009054906101000a900473ffffffffffffffffffffffffffffffffffffffff1673ffffffffffffffffffffffffffffffffffffffff1614159050919050565b600033905090565b816004600083815260200190815260200160002060006101000a81548173ffffffffffffffffffffffffffffffffffffffff021916908373ffffffffffffffffffffffffffffffffffffffff160217905550808273ffffffffffffffffffffffffffffffffffffffff166116e283610c0e565b73ffffffffffffffffffffffffffffffffffffffff167f8c5be1e5ebec7d5bd14f71427d1e84f3dd0314c0f7b2291e5b200ac8c7c3b92560405160405180910390a45050565b6000611733826115fb565b611772576040517f08c379a000000000000000000000000000000000000000000000000000000000815260040161176990612c56565b60405180910390fd5b600061177d83610c0e565b90508073ffffffffffffffffffffffffffffffffffffffff168473ffffffffffffffffffffffffffffffffffffffff1614806117ec57508373ffffffffffffffffffffffffffffffffffffffff166117d4846107ce565b73ffffffffffffffffffffffffffffffffffffffff16145b806117fd57506117fc8185611405565b5b91505092915050565b8273ffffffffffffffffffffffffffffffffffffffff1661182682610c0e565b73ffffffffffffffffffffffffffffffffffffffff161461187c576040517f08c379a000000000000000000000000000000000000000000000000000000000815260040161187390612bd6565b60405180910390fd5b600073ffffffffffffffffffffffffffffffffffffffff168273ffffffffffffffffffffffffffffffffffffffff1614156118ec576040517f08c379a00000000000000000000000000000000000000000000000000000000081526004016118e390612c16565b60405180910390fd5b6118f7838383611d8e565b61190260008261166f565b6001600360008573ffffffffffffffffffffffffffffffffffffffff1673ffffffffffffffffffffffffffffffffffffffff16815260200190815260200160002060008282546119529190612fde565b925050819055506001600360008473ffffffffffffffffffffffffffffffffffffffff1673ffffffffffffffffffffffffffffffffffffffff16815260200190815260200160002060008282546119a99190612f88565b92505081905550816002600083815260200190815260200160002060006101000a81548173ffffffffffffffffffffffffffffffffffffffff021916908373ffffffffffffffffffffffffffffffffffffffff160217905550808273ffffffffffffffffffffffffffffffffffffffff168473ffffffffffffffffffffffffffffffffffffffff167fddf252ad1be2c89b69c2b068fc378daa952ba7f163c4a11628f55a4df523b3ef60405160405180910390a4611a68838383611d93565b505050565b6000600660009054906101000a900473ffffffffffffffffffffffffffffffffffffffff16905081600660006101000a81548173ffffffffffffffffffffffffffffffffffffffff021916908373ffffffffffffffffffffffffffffffffffffffff1602179055508173ffffffffffffffffffffffffffffffffffffffff168173ffffffffffffffffffffffffffffffffffffffff167f8be0079c531659141344cd1fd0a4f28419497f9722a3daafe3b4186f6b6457e060405160405180910390a35050565b8173ffffffffffffffffffffffffffffffffffffffff168373ffffffffffffffffffffffffffffffffffffffff161415611ba2576040517f08c379a0000000000000000000000000000000000000000000000000000000008152600401611b9990612c36565b60405180910390fd5b80600560008573ffffffffffffffffffffffffffffffffffffffff1673ffffffffffffffffffffffffffffffffffffffff16815260200190815260200160002060008473ffffffffffffffffffffffffffffffffffffffff1673ffffffffffffffffffffffffffffffffffffffff16815260200190815260200160002060006101000a81548160ff0219169083151502179055508173ffffffffffffffffffffffffffffffffffffffff168373ffffffffffffffffffffffffffffffffffffffff167f17307eab39ab6107e8899845ad3d59bd9653f200f220920489ca2b5937696c3183604051611c939190612aed565b60405180910390a3505050565b611cab848484611806565b611cb784848484611d98565b611cf6576040517f08c379a0000000000000000000000000000000000000000000000000000000008152600401611ced90612b76565b60405180910390fd5b50505050565b611d16828260405180602001604052806000815250611f2f565b5050565b611d23826115fb565b611d62576040517f08c379a0000000000000000000000000000000000000000000000000000000008152600401611d5990612d36565b60405180910390fd5b80600c60008481526020019081526020016000209080519060200190611d89929190612187565b505050565b505050565b505050565b6000611db98473ffffffffffffffffffffffffffffffffffffffff16611f8a565b15611f22578373ffffffffffffffffffffffffffffffffffffffff1663150b7a02611de2611667565b8786866040518563ffffffff1660e01b8152600401611e049493929190612a7f565b602060405180830381600087803b158015611e1e57600080fd5b505af1925050508015611e4f57506040513d601f19601f82011682018060405250810190611e4c9190612533565b60015b611ed2573d8060008114611e7f576040519150601f19603f3d011682016040523d82523d6000602084013e611e84565b606091505b50600081511415611eca576040517f08c379a0000000000000000000000000000000000000000000000000000000008152600401611ec190612b76565b60405180910390fd5b805181602001fd5b63150b7a0260e01b7bffffffffffffffffffffffffffffffffffffffffffffffffffffffff1916817bffffffffffffffffffffffffffffffffffffffffffffffffffffffff191614915050611f27565b600190505b949350505050565b611f398383611fad565b611f466000848484611d98565b611f85576040517f08c379a0000000000000000000000000000000000000000000000000000000008152600401611f7c90612b76565b60405180910390fd5b505050565b6000808273ffffffffffffffffffffffffffffffffffffffff163b119050919050565b600073ffffffffffffffffffffffffffffffffffffffff168273ffffffffffffffffffffffffffffffffffffffff16141561201d576040517f08c379a000000000000000000000000000000000000000000000000000000000815260040161201490612cd6565b60405180910390fd5b612026816115fb565b15612066576040517f08c379a000000000000000000000000000000000000000000000000000000000815260040161205d90612bf6565b60405180910390fd5b61207260008383611d8e565b6001600360008473ffffffffffffffffffffffffffffffffffffffff1673ffffffffffffffffffffffffffffffffffffffff16815260200190815260200160002060008282546120c29190612f88565b92505081905550816002600083815260200190815260200160002060006101000a81548173ffffffffffffffffffffffffffffffffffffffff021916908373ffffffffffffffffffffffffffffffffffffffff160217905550808273ffffffffffffffffffffffffffffffffffffffff16600073ffffffffffffffffffffffffffffffffffffffff167fddf252ad1be2c89b69c2b068fc378daa952ba7f163c4a11628f55a4df523b3ef60405160405180910390a461218360008383611d93565b5050565b828054612193906130c8565b90600052602060002090601f0160209004810192826121b557600085556121fc565b82601f106121ce57805160ff19168380011785556121fc565b828001600101855582156121fc579182015b828111156121fb5782518255916020019190600101906121e0565b5b509050612209919061220d565b5090565b5b8082111561222657600081600090555060010161220e565b5090565b600061223d61223884612ea4565b612e7f565b90508281526020810184848401111561225557600080fd5b612260848285613086565b509392505050565b600061227b61227684612ed5565b612e7f565b90508281526020810184848401111561229357600080fd5b61229e848285613086565b509392505050565b6000813590506122b5816136c5565b92915050565b6000813590506122ca816136dc565b92915050565b6000813590506122df816136f3565b92915050565b6000815190506122f4816136f3565b92915050565b600082601f83011261230b57600080fd5b813561231b84826020860161222a565b91505092915050565b600082601f83011261233557600080fd5b8135612345848260208601612268565b91505092915050565b60008135905061235d8161370a565b92915050565b60006020828403121561237557600080fd5b6000612383848285016122a6565b91505092915050565b6000806040838503121561239f57600080fd5b60006123ad858286016122a6565b92505060206123be858286016122a6565b9150509250929050565b6000806000606084860312156123dd57600080fd5b60006123eb868287016122a6565b93505060206123fc868287016122a6565b925050604061240d8682870161234e565b9150509250925092565b6000806000806080858703121561242d57600080fd5b600061243b878288016122a6565b945050602061244c878288016122a6565b935050604061245d8782880161234e565b925050606085013567ffffffffffffffff81111561247a57600080fd5b612486878288016122fa565b91505092959194509250565b600080604083850312156124a557600080fd5b60006124b3858286016122a6565b92505060206124c4858286016122bb565b9150509250929050565b600080604083850312156124e157600080fd5b60006124ef858286016122a6565b92505060206125008582860161234e565b9150509250929050565b60006020828403121561251c57600080fd5b600061252a848285016122d0565b91505092915050565b60006020828403121561254557600080fd5b6000612553848285016122e5565b91505092915050565b60006020828403121561256e57600080fd5b600082013567ffffffffffffffff81111561258857600080fd5b61259484828501612324565b91505092915050565b6000602082840312156125af57600080fd5b60006125bd8482850161234e565b91505092915050565b60006125d283836129e3565b905092915050565b6125e381613012565b82525050565b6125f281613012565b82525050565b600061260382612f16565b61260d8185612f44565b93508360208202850161261f85612f06565b8060005b8581101561265b578484038952815161263c85826125c6565b945061264783612f37565b925060208a01995050600181019050612623565b50829750879550505050505092915050565b61267681613024565b82525050565b600061268782612f21565b6126918185612f55565b93506126a1818560208601613095565b6126aa816131b8565b840191505092915050565b60006126c082612f2c565b6126ca8185612f66565b93506126da818560208601613095565b6126e3816131b8565b840191505092915050565b60006126f982612f2c565b6127038185612f77565b9350612713818560208601613095565b61271c816131b8565b840191505092915050565b6000612734603283612f77565b915061273f826131c9565b604082019050919050565b6000612757601583612f77565b915061276282613218565b602082019050919050565b600061277a602683612f77565b915061278582613241565b604082019050919050565b600061279d602583612f77565b91506127a882613290565b604082019050919050565b60006127c0601c83612f77565b91506127cb826132df565b602082019050919050565b60006127e3602483612f77565b91506127ee82613308565b604082019050919050565b6000612806601983612f77565b915061281182613357565b602082019050919050565b6000612829602c83612f77565b915061283482613380565b604082019050919050565b600061284c603883612f77565b9150612857826133cf565b604082019050919050565b600061286f602a83612f77565b915061287a8261341e565b604082019050919050565b6000612892602983612f77565b915061289d8261346d565b604082019050919050565b60006128b5602083612f77565b91506128c0826134bc565b602082019050919050565b60006128d8602c83612f77565b91506128e3826134e5565b604082019050919050565b60006128fb602083612f77565b915061290682613534565b602082019050919050565b600061291e602f83612f77565b91506129298261355d565b604082019050919050565b6000612941601d83612f77565b915061294c826135ac565b602082019050919050565b6000612964602183612f77565b915061296f826135d5565b604082019050919050565b6000612987603183612f77565b915061299282613624565b604082019050919050565b60006129aa601083612f77565b91506129b582613673565b602082019050919050565b60006129cd601083612f77565b91506129d88261369c565b602082019050919050565b60006080830160008301518482036000860152612a0082826126b5565b9150506020830151612a1560208601826125da565b506040830151612a286040860182612a46565b506060830151612a3b6060860182612a46565b508091505092915050565b612a4f8161307c565b82525050565b612a5e8161307c565b82525050565b6000602082019050612a7960008301846125e9565b92915050565b6000608082019050612a9460008301876125e9565b612aa160208301866125e9565b612aae6040830185612a55565b8181036060830152612ac0818461267c565b905095945050505050565b60006020820190508181036000830152612ae581846125f8565b905092915050565b6000602082019050612b02600083018461266d565b92915050565b60006020820190508181036000830152612b2281846126ee565b905092915050565b60006080820190508181036000830152612b4481876126ee565b9050612b5360208301866125e9565b612b606040830185612a55565b612b6d6060830184612a55565b95945050505050565b60006020820190508181036000830152612b8f81612727565b9050919050565b60006020820190508181036000830152612baf8161274a565b9050919050565b60006020820190508181036000830152612bcf8161276d565b9050919050565b60006020820190508181036000830152612bef81612790565b9050919050565b60006020820190508181036000830152612c0f816127b3565b9050919050565b60006020820190508181036000830152612c2f816127d6565b9050919050565b60006020820190508181036000830152612c4f816127f9565b9050919050565b60006020820190508181036000830152612c6f8161281c565b9050919050565b60006020820190508181036000830152612c8f8161283f565b9050919050565b60006020820190508181036000830152612caf81612862565b9050919050565b60006020820190508181036000830152612ccf81612885565b9050919050565b60006020820190508181036000830152612cef816128a8565b9050919050565b60006020820190508181036000830152612d0f816128cb565b9050919050565b60006020820190508181036000830152612d2f816128ee565b9050919050565b60006020820190508181036000830152612d4f81612911565b9050919050565b60006020820190508181036000830152612d6f81612934565b9050919050565b60006020820190508181036000830152612d8f81612957565b9050919050565b60006020820190508181036000830152612daf8161297a565b9050919050565b60006020820190508181036000830152612dcf8161299d565b9050919050565b60006020820190508181036000830152612def816129c0565b9050919050565b6000602082019050612e0b6000830184612a55565b92915050565b6000606082019050612e266000830186612a55565b612e3360208301856125e9565b8181036040830152612e4581846126ee565b9050949350505050565b6000604082019050612e646000830185612a55565b8181036020830152612e7681846126ee565b90509392505050565b6000612e89612e9a565b9050612e9582826130fa565b919050565b6000604051905090565b600067ffffffffffffffff821115612ebf57612ebe613189565b5b612ec8826131b8565b9050602081019050919050565b600067ffffffffffffffff821115612ef057612eef613189565b5b612ef9826131b8565b9050602081019050919050565b6000819050602082019050919050565b600081519050919050565b600081519050919050565b600081519050919050565b6000602082019050919050565b600082825260208201905092915050565b600082825260208201905092915050565b600082825260208201905092915050565b600082825260208201905092915050565b6000612f938261307c565b9150612f9e8361307c565b9250827fffffffffffffffffffffffffffffffffffffffffffffffffffffffffffffffff03821115612fd357612fd261312b565b5b828201905092915050565b6000612fe98261307c565b9150612ff48361307c565b9250828210156130075761300661312b565b5b828203905092915050565b600061301d8261305c565b9050919050565b60008115159050919050565b60007fffffffff0000000000000000000000000000000000000000000000000000000082169050919050565b600073ffffffffffffffffffffffffffffffffffffffff82169050919050565b6000819050919050565b82818337600083830152505050565b60005b838110156130b3578082015181840152602081019050613098565b838111156130c2576000848401525b50505050565b600060028204905060018216806130e057607f821691505b602082108114156130f4576130f361315a565b5b50919050565b613103826131b8565b810181811067ffffffffffffffff8211171561312257613121613189565b5b80604052505050565b7f4e487b7100000000000000000000000000000000000000000000000000000000600052601160045260246000fd5b7f4e487b7100000000000000000000000000000000000000000000000000000000600052602260045260246000fd5b7f4e487b7100000000000000000000000000000000000000000000000000000000600052604160045260246000fd5b6000601f19601f8301169050919050565b7f4552433732313a207472616e7366657220746f206e6f6e20455243373231526560008201527f63656976657220696d706c656d656e7465720000000000000000000000000000602082015250565b7f4d6178696d756d204e4654206973206d696e7465640000000000000000000000600082015250565b7f4f776e61626c653a206e6577206f776e657220697320746865207a65726f206160008201527f6464726573730000000000000000000000000000000000000000000000000000602082015250565b7f4552433732313a207472616e736665722066726f6d20696e636f72726563742060008201527f6f776e6572000000000000000000000000000000000000000000000000000000602082015250565b7f4552433732313a20746f6b656e20616c7265616479206d696e74656400000000600082015250565b7f4552433732313a207472616e7366657220746f20746865207a65726f2061646460008201527f7265737300000000000000000000000000000000000000000000000000000000602082015250565b7f4552433732313a20617070726f766520746f2063616c6c657200000000000000600082015250565b7f4552433732313a206f70657261746f7220717565727920666f72206e6f6e657860008201527f697374656e7420746f6b656e0000000000000000000000000000000000000000602082015250565b7f4552433732313a20617070726f76652063616c6c6572206973206e6f74206f7760008201527f6e6572206e6f7220617070726f76656420666f7220616c6c0000000000000000602082015250565b7f4552433732313a2062616c616e636520717565727920666f7220746865207a6560008201527f726f206164647265737300000000000000000000000000000000000000000000602082015250565b7f4552433732313a206f776e657220717565727920666f72206e6f6e657869737460008201527f656e7420746f6b656e0000000000000000000000000000000000000000000000602082015250565b7f4552433732313a206d696e7420746f20746865207a65726f2061646472657373600082015250565b7f4552433732313a20617070726f76656420717565727920666f72206e6f6e657860008201527f697374656e7420746f6b656e0000000000000000000000000000000000000000602082015250565b7f4f776e61626c653a2063616c6c6572206973206e6f7420746865206f776e6572600082015250565b7f4552433732314d657461646174613a2055524920717565727920666f72206e6f60008201527f6e6578697374656e7420746f6b656e0000000000000000000000000000000000602082015250565b7f4c696d69742065786365656420666f722074686973206163636f756e74000000600082015250565b7f4552433732313a20617070726f76616c20746f2063757272656e74206f776e6560008201527f7200000000000000000000000000000000000000000000000000000000000000602082015250565b7f4552433732313a207472616e736665722063616c6c6572206973206e6f74206f60008201527f776e6572206e6f7220617070726f766564000000000000000000000000000000602082015250565b7f57726f6e67206d696e742076616c756500000000000000000000000000000000600082015250565b7f546f6b656e696420726571756972656400000000000000000000000000000000600082015250565b6136ce81613012565b81146136d957600080fd5b50565b6136e581613024565b81146136f057600080fd5b50565b6136fc81613030565b811461370757600080fd5b50565b6137138161307c565b811461371e57600080fd5b5056fea26469706673582212204518910de2c35ede1dd94510697106b53afc514bc3f9ce07f4a6b56c15aeea7e64736f6c63430008040033",
  "linkReferences": {},
  "deployedLinkReferences": {}
}