{
  "_format": "hh-sol-artifact-1",
  "contractName": "NFTPunk",
  "sourceName": "contracts/NFTPunk.sol",
  "abi": [
    {
      "inputs": [
        {
          "internalType": "string",
          "name": "name",
          "type": "string"
        },
        {
          "internalType": "string",
          "name": "symbol",
          "type": "string"
        }
      ],
      "stateMutability": "nonpayable",
      "type": "constructor"
    },
    {
      "anonymous": false,
      "inputs": [
        {
          "indexed": true,
          "internalType": "address",
          "name": "owner",
          "type": "address"
        },
        {
          "indexed": true,
          "internalType": "address",
          "name": "approved",
          "type": "address"
        },
        {
          "indexed": true,
          "internalType": "uint256",
          "name": "tokenId",
          "type": "uint256"
        }
      ],
      "name": "Approval",
      "type": "event"
    },
    {
      "anonymous": false,
      "inputs": [
        {
          "indexed": true,
          "internalType": "address",
          "name": "owner",
          "type": "address"
        },
        {
          "indexed": true,
          "internalType": "address",
          "name": "operator",
          "type": "address"
        },
        {
          "indexed": false,
          "internalType": "bool",
          "name": "approved",
          "type": "bool"
        }
      ],
      "name": "ApprovalForAll",
      "type": "event"
    },
    {
      "anonymous": false,
      "inputs": [
        {
          "indexed": true,
          "internalType": "address",
          "name": "previousOwner",
          "type": "address"
        },
        {
          "indexed": true,
          "internalType": "address",
          "name": "newOwner",
          "type": "address"
        }
      ],
      "name": "OwnershipTransferred",
      "type": "event"
    },
    {
      "anonymous": false,
      "inputs": [
        {
          "indexed": true,
          "internalType": "address",
          "name": "from",
          "type": "address"
        },
        {
          "indexed": true,
          "internalType": "address",
          "name": "to",
          "type": "address"
        },
        {
          "indexed": true,
          "internalType": "uint256",
          "name": "tokenId",
          "type": "uint256"
        }
      ],
      "name": "Transfer",
      "type": "event"
    },
    {
      "anonymous": false,
      "inputs": [
        {
          "indexed": false,
          "internalType": "uint256",
          "name": "tokenId",
          "type": "uint256"
        },
        {
          "indexed": false,
          "internalType": "address",
          "name": "minter",
          "type": "address"
        },
        {
          "indexed": false,
          "internalType": "string",
          "name": "tokenURI",
          "type": "string"
        }
      ],
      "name": "nftMinted",
      "type": "event"
    },
    {
      "anonymous": false,
      "inputs": [
        {
          "indexed": false,
          "internalType": "uint256",
          "name": "tokenId",
          "type": "uint256"
        },
        {
          "indexed": false,
          "internalType": "string",
          "name": "tokenUri",
          "type": "string"
        }
      ],
      "name": "setTokenUri",
      "type": "event"
    },
    {
      "inputs": [
        {
          "internalType": "uint256",
          "name": "",
          "type": "uint256"
        }
      ],
      "name": "NFTDetailsList",
      "outputs": [
        {
          "internalType": "string",
          "name": "uri",
          "type": "string"
        },
        {
          "internalType": "address",
          "name": "owner",
          "type": "address"
        },
        {
          "internalType": "uint256",
          "name": "tokenId",
          "type": "uint256"
        },
        {
          "internalType": "uint256",
          "name": "timeStamp",
          "type": "uint256"
        }
      ],
      "stateMutability": "view",
      "type": "function"
    },
    {
      "inputs": [
        {
          "internalType": "address",
          "name": "to",
          "type": "address"
        },
        {
          "internalType": "uint256",
          "name": "tokenId",
          "type": "uint256"
        }
      ],
      "name": "approve",
      "outputs": [],
      "stateMutability": "nonpayable",
      "type": "function"
    },
    {
      "inputs": [
        {
          "internalType": "address",
          "name": "owner",
          "type": "address"
        }
      ],
      "name": "balanceOf",
      "outputs": [
        {
          "internalType": "uint256",
          "name": "",
          "type": "uint256"
        }
      ],
      "stateMutability": "view",
      "type": "function"
    },
    {
      "inputs": [],
      "name": "getAllNFTDetails",
      "outputs": [
        {
          "components": [
            {
              "internalType": "string",
              "name": "uri",
              "type": "string"
            },
            {
              "internalType": "address",
              "name": "owner",
              "type": "address"
            },
            {
              "internalType": "uint256",
              "name": "tokenId",
              "type": "uint256"
            },
            {
              "internalType": "uint256",
              "name": "timeStamp",
              "type": "uint256"
            }
          ],
          "internalType": "struct NFTPunk.NFTDetails[]",
          "name": "",
          "type": "tuple[]"
        }
      ],
      "stateMutability": "view",
      "type": "function"
    },
    {
      "inputs": [
        {
          "internalType": "uint256",
          "name": "tokenId",
          "type": "uint256"
        }
      ],
      "name": "getApproved",
      "outputs": [
        {
          "internalType": "address",
          "name": "",
          "type": "address"
        }
      ],
      "stateMutability": "view",
      "type": "function"
    },
    {
      "inputs": [],
      "name": "getTotalNUmberDeployedNFT",
      "outputs": [
        {
          "internalType": "uint256",
          "name": "",
          "type": "uint256"
        }
      ],
      "stateMutability": "view",
      "type": "function"
    },
    {
      "inputs": [
        {
          "internalType": "address",
          "name": "owner",
          "type": "address"
        },
        {
          "internalType": "address",
          "name": "operator",
          "type": "address"
        }
      ],
      "name": "isApprovedForAll",
      "outputs": [
        {
          "internalType": "bool",
          "name": "",
          "type": "bool"
        }
      ],
      "stateMutability": "view",
      "type": "function"
    },
    {
      "inputs": [],
      "name": "maxNFT",
      "outputs": [
        {
          "internalType": "uint256",
          "name": "",
          "type": "uint256"
        }
      ],
      "stateMutability": "view",
      "type": "function"
    },
    {
      "inputs": [],
      "name": "maxNFTPerAccount",
      "outputs": [
        {
          "internalType": "uint256",
          "name": "",
          "type": "uint256"
        }
      ],
      "stateMutability": "view",
      "type": "function"
    },
    {
      "inputs": [
        {
          "internalType": "string",
          "name": "tokenURI",
          "type": "string"
        }
      ],
      "name": "mint",
      "outputs": [],
      "stateMutability": "payable",
      "type": "function"
    },
    {
      "inputs": [],
      "name": "name",
      "outputs": [
        {
          "internalType": "string",
          "name": "",
          "type": "string"
        }
      ],
      "stateMutability": "view",
      "type": "function"
    },
    {
      "inputs": [],
      "name": "owner",
      "outputs": [
        {
          "internalType": "address",
          "name": "",
          "type": "address"
        }
      ],
      "stateMutability": "view",
      "type": "function"
    },
    {
      "inputs": [
        {
          "internalType": "uint256",
          "name": "tokenId",
          "type": "uint256"
        }
      ],
      "name": "ownerOf",
      "outputs": [
        {
          "internalType": "address",
          "name": "",
          "type": "address"
        }
      ],
      "stateMutability": "view",
      "type": "function"
    },
    {
      "inputs": [],
      "name": "priceToMint",
      "outputs": [
        {
          "internalType": "uint256",
          "name": "",
          "type": "uint256"
        }
      ],
      "stateMutability": "view",
      "type": "function"
    },
    {
      "inputs": [],
      "name": "renounceOwnership",
      "outputs": [],
      "stateMutability": "nonpayable",
      "type": "function"
    },
    {
      "inputs": [
        {
          "internalType": "address",
          "name": "from",
          "type": "address"
        },
        {
          "internalType": "address",
          "name": "to",
          "type": "address"
        },
        {
          "internalType": "uint256",
          "name": "tokenId",
          "type": "uint256"
        }
      ],
      "name": "safeTransferFrom",
      "outputs": [],
      "stateMutability": "nonpayable",
      "type": "function"
    },
    {
      "inputs": [
        {
          "internalType": "address",
          "name": "from",
          "type": "address"
        },
        {
          "internalType": "address",
          "name": "to",
          "type": "address"
        },
        {
          "internalType": "uint256",
          "name": "tokenId",
          "type": "uint256"
        },
        {
          "internalType": "bytes",
          "name": "_data",
          "type": "bytes"
        }
      ],
      "name": "safeTransferFrom",
      "outputs": [],
      "stateMutability": "nonpayable",
      "type": "function"
    },
    {
      "inputs": [
        {
          "internalType": "address",
          "name": "operator",
          "type": "address"
        },
        {
          "internalType": "bool",
          "name": "approved",
          "type": "bool"
        }
      ],
      "name": "setApprovalForAll",
      "outputs": [],
      "stateMutability": "nonpayable",
      "type": "function"
    },
    {
      "inputs": [
        {
          "internalType": "bytes4",
          "name": "interfaceId",
          "type": "bytes4"
        }
      ],
      "name": "supportsInterface",
      "outputs": [
        {
          "internalType": "bool",
          "name": "",
          "type": "bool"
        }
      ],
      "stateMutability": "view",
      "type": "function"
    },
    {
      "inputs": [],
      "name": "symbol",
      "outputs": [
        {
          "internalType": "string",
          "name": "",
          "type": "string"
        }
      ],
      "stateMutability": "view",
      "type": "function"
    },
    {
      "inputs": [
        {
          "internalType": "uint256",
          "name": "",
          "type": "uint256"
        }
      ],
      "name": "tokenIdToUri",
      "outputs": [
        {
          "internalType": "string",
          "name": "",
          "type": "string"
        }
      ],
      "stateMutability": "view",
      "type": "function"
    },
    {
      "inputs": [
        {
          "internalType": "uint256",
          "name": "tokenId",
          "type": "uint256"
        }
      ],
      "name": "tokenURI",
      "outputs": [
        {
          "internalType": "string",
          "name": "",
          "type": "string"
        }
      ],
      "stateMutability": "view",
      "type": "function"
    },
    {
      "inputs": [],
      "name": "totalSuply",
      "outputs": [
        {
          "internalType": "uint256",
          "name": "",
          "type": "uint256"
        }
      ],
      "stateMutability": "view",
      "type": "function"
    },
    {
      "inputs": [
        {
          "internalType": "address",
          "name": "from",
          "type": "address"
        },
        {
          "internalType": "address",
          "name": "to",
          "type": "address"
        },
        {
          "internalType": "uint256",
          "name": "tokenId",
          "type": "uint256"
        }
      ],
      "name": "transferFrom",
      "outputs": [],
      "stateMutability": "nonpayable",
      "type": "function"
    },
    {
      "inputs": [
        {
          "internalType": "address",
          "name": "newOwner",
          "type": "address"
        }
      ],
      "name": "transferOwnership",
      "outputs": [],
      "stateMutability": "nonpayable",
      "type": "function"
    },
    {
      "inputs": [
        {
          "internalType": "address",
          "name": "",
          "type": "address"
        }
      ],
      "name": "walletsMint",
      "outputs": [
        {
          "internalType": "uint256",
          "name": "",
          "type": "uint256"
        }
      ],
      "stateMutability": "view",
      "type": "function"
    }
  ],
  "bytecode": "0x60806040523480156200001157600080fd5b5060405162003e4238038062003e428339818101604052810190620000379190620002ac565b81818160009080519060200190620000519291906200018a565b5080600190805190602001906200006a9291906200018a565b5050506200008d62000081620000bc60201b60201c565b620000c460201b60201c565b6103e86007819055506000600881905550662386f26fc100006009819055506001600a8190555050506200048f565b600033905090565b6000600660009054906101000a900473ffffffffffffffffffffffffffffffffffffffff16905081600660006101000a81548173ffffffffffffffffffffffffffffffffffffffff021916908373ffffffffffffffffffffffffffffffffffffffff1602179055508173ffffffffffffffffffffffffffffffffffffffff168173ffffffffffffffffffffffffffffffffffffffff167f8be0079c531659141344cd1fd0a4f28419497f9722a3daafe3b4186f6b6457e060405160405180910390a35050565b8280546200019890620003b4565b90600052602060002090601f016020900481019282620001bc576000855562000208565b82601f10620001d757805160ff191683800117855562000208565b8280016001018555821562000208579182015b8281111562000207578251825591602001919060010190620001ea565b5b5090506200021791906200021b565b5090565b5b80821115620002365760008160009055506001016200021c565b5090565b6000620002516200024b8462000348565b6200031f565b9050828152602081018484840111156200026a57600080fd5b620002778482856200037e565b509392505050565b600082601f8301126200029157600080fd5b8151620002a38482602086016200023a565b91505092915050565b60008060408385031215620002c057600080fd5b600083015167ffffffffffffffff811115620002db57600080fd5b620002e9858286016200027f565b925050602083015167ffffffffffffffff8111156200030757600080fd5b62000315858286016200027f565b9150509250929050565b60006200032b6200033e565b9050620003398282620003ea565b919050565b6000604051905090565b600067ffffffffffffffff8211156200036657620003656200044f565b5b62000371826200047e565b9050602081019050919050565b60005b838110156200039e57808201518184015260208101905062000381565b83811115620003ae576000848401525b50505050565b60006002820490506001821680620003cd57607f821691505b60208210811415620003e457620003e362000420565b5b50919050565b620003f5826200047e565b810181811067ffffffffffffffff821117156200041757620004166200044f565b5b80604052505050565b7f4e487b7100000000000000000000000000000000000000000000000000000000600052602260045260246000fd5b7f4e487b7100000000000000000000000000000000000000000000000000000000600052604160045260246000fd5b6000601f19601f8301169050919050565b6139a3806200049f6000396000f3fe6080604052600436106101815760003560e01c806370a08231116100d1578063b88d4fde1161008a578063daef841911610064578063daef84191461059e578063e456b01c146105c9578063e985e9c5146105f4578063f2fde38b1461063157610181565b8063b88d4fde1461051c578063c87b56dd14610545578063d85d3d271461058257610181565b806370a082311461041e578063715018a61461045b5780638da5cb5b1461047257806395d89b411461049d578063a22cb465146104c8578063a2a96799146104f157610181565b806323b872dd1161013e5780634dc1dbec116101185780634dc1dbec14610339578063511295c4146103645780636352211e146103a15780636e539e1a146103de57610181565b806323b872dd146102bc57806342842e0e146102e557806343e3dbe61461030e57610181565b806301ffc9a71461018657806306fdde03146101c3578063081812fc146101ee578063095ea7b31461022b578063119d209a1461025457806312dc49cd14610291575b600080fd5b34801561019257600080fd5b506101ad60048036038101906101a89190612688565b61065a565b6040516101ba9190612c9d565b60405180910390f35b3480156101cf57600080fd5b506101d861073c565b6040516101e59190612cb8565b60405180910390f35b3480156101fa57600080fd5b506102156004803603810190610210919061271b565b6107ce565b6040516102229190612c14565b60405180910390f35b34801561023757600080fd5b50610252600480360381019061024d919061264c565b610853565b005b34801561026057600080fd5b5061027b6004803603810190610276919061271b565b61096b565b6040516102889190612cb8565b60405180910390f35b34801561029d57600080fd5b506102a6610a0b565b6040516102b39190612f86565b60405180910390f35b3480156102c857600080fd5b506102e360048036038101906102de9190612546565b610a15565b005b3480156102f157600080fd5b5061030c60048036038101906103079190612546565b610a75565b005b34801561031a57600080fd5b50610323610a95565b6040516103309190612c7b565b60405180910390f35b34801561034557600080fd5b5061034e610bf0565b60405161035b9190612f86565b60405180910390f35b34801561037057600080fd5b5061038b600480360381019061038691906124e1565b610bf6565b6040516103989190612f86565b60405180910390f35b3480156103ad57600080fd5b506103c860048036038101906103c3919061271b565b610c0e565b6040516103d59190612c14565b60405180910390f35b3480156103ea57600080fd5b506104056004803603810190610400919061271b565b610cc0565b6040516104159493929190612cda565b60405180910390f35b34801561042a57600080fd5b50610445600480360381019061044091906124e1565b610da8565b6040516104529190612f86565b60405180910390f35b34801561046757600080fd5b50610470610e60565b005b34801561047e57600080fd5b50610487610ee8565b6040516104949190612c14565b60405180910390f35b3480156104a957600080fd5b506104b2610f12565b6040516104bf9190612cb8565b60405180910390f35b3480156104d457600080fd5b506104ef60048036038101906104ea9190612610565b610fa4565b005b3480156104fd57600080fd5b50610506610fba565b6040516105139190612f86565b60405180910390f35b34801561052857600080fd5b50610543600480360381019061053e9190612595565b610fc0565b005b34801561055157600080fd5b5061056c6004803603810190610567919061271b565b611022565b6040516105799190612cb8565b60405180910390f35b61059c600480360381019061059791906126da565b6110c9565b005b3480156105aa57600080fd5b506105b36113b3565b6040516105c09190612f86565b60405180910390f35b3480156105d557600080fd5b506105de6113b9565b6040516105eb9190612f86565b60405180910390f35b34801561060057600080fd5b5061061b6004803603810190610616919061250a565b6113bf565b6040516106289190612c9d565b60405180910390f35b34801561063d57600080fd5b50610658600480360381019061065391906124e1565b611453565b005b60007f80ac58cd000000000000000000000000000000000000000000000000000000007bffffffffffffffffffffffffffffffffffffffffffffffffffffffff1916827bffffffffffffffffffffffffffffffffffffffffffffffffffffffff1916148061072557507f5b5e139f000000000000000000000000000000000000000000000000000000007bffffffffffffffffffffffffffffffffffffffffffffffffffffffff1916827bffffffffffffffffffffffffffffffffffffffffffffffffffffffff1916145b8061073557506107348261154b565b5b9050919050565b60606000805461074b90613294565b80601f016020809104026020016040519081016040528092919081815260200182805461077790613294565b80156107c45780601f10610799576101008083540402835291602001916107c4565b820191906000526020600020905b8154815290600101906020018083116107a757829003601f168201915b5050505050905090565b60006107d9826115b5565b610818576040517f08c379a000000000000000000000000000000000000000000000000000000000815260040161080f90612ea6565b60405180910390fd5b6004600083815260200190815260200160002060009054906101000a900473ffffffffffffffffffffffffffffffffffffffff169050919050565b600061085e82610c0e565b90508073ffffffffffffffffffffffffffffffffffffffff168373ffffffffffffffffffffffffffffffffffffffff1614156108cf576040517f08c379a00000000000000000000000000000000000000000000000000000000081526004016108c690612f26565b60405180910390fd5b8073ffffffffffffffffffffffffffffffffffffffff166108ee611621565b73ffffffffffffffffffffffffffffffffffffffff16148061091d575061091c81610917611621565b6113bf565b5b61095c576040517f08c379a000000000000000000000000000000000000000000000000000000000815260040161095390612e26565b60405180910390fd5b6109668383611629565b505050565b600c602052806000526040600020600091509050805461098a90613294565b80601f01602080910402602001604051908101604052809291908181526020018280546109b690613294565b8015610a035780601f106109d857610100808354040283529160200191610a03565b820191906000526020600020905b8154815290600101906020018083116109e657829003601f168201915b505050505081565b6000600854905090565b610a26610a20611621565b826116e2565b610a65576040517f08c379a0000000000000000000000000000000000000000000000000000000008152600401610a5c90612f46565b60405180910390fd5b610a708383836117c0565b505050565b610a9083838360405180602001604052806000815250610fc0565b505050565b6060600d805480602002602001604051908101604052809291908181526020016000905b82821015610be75783829060005260206000209060040201604051806080016040529081600082018054610aec90613294565b80601f0160208091040260200160405190810160405280929190818152602001828054610b1890613294565b8015610b655780601f10610b3a57610100808354040283529160200191610b65565b820191906000526020600020905b815481529060010190602001808311610b4857829003601f168201915b505050505081526020016001820160009054906101000a900473ffffffffffffffffffffffffffffffffffffffff1673ffffffffffffffffffffffffffffffffffffffff1673ffffffffffffffffffffffffffffffffffffffff1681526020016002820154815260200160038201548152505081526020019060010190610ab9565b50505050905090565b60095481565b600b6020528060005260406000206000915090505481565b6000806002600084815260200190815260200160002060009054906101000a900473ffffffffffffffffffffffffffffffffffffffff169050600073ffffffffffffffffffffffffffffffffffffffff168173ffffffffffffffffffffffffffffffffffffffff161415610cb7576040517f08c379a0000000000000000000000000000000000000000000000000000000008152600401610cae90612e66565b60405180910390fd5b80915050919050565b600d8181548110610cd057600080fd5b9060005260206000209060040201600091509050806000018054610cf390613294565b80601f0160208091040260200160405190810160405280929190818152602001828054610d1f90613294565b8015610d6c5780601f10610d4157610100808354040283529160200191610d6c565b820191906000526020600020905b815481529060010190602001808311610d4f57829003601f168201915b5050505050908060010160009054906101000a900473ffffffffffffffffffffffffffffffffffffffff16908060020154908060030154905084565b60008073ffffffffffffffffffffffffffffffffffffffff168273ffffffffffffffffffffffffffffffffffffffff161415610e19576040517f08c379a0000000000000000000000000000000000000000000000000000000008152600401610e1090612e46565b60405180910390fd5b600360008373ffffffffffffffffffffffffffffffffffffffff1673ffffffffffffffffffffffffffffffffffffffff168152602001908152602001600020549050919050565b610e68611621565b73ffffffffffffffffffffffffffffffffffffffff16610e86610ee8565b73ffffffffffffffffffffffffffffffffffffffff1614610edc576040517f08c379a0000000000000000000000000000000000000000000000000000000008152600401610ed390612ec6565b60405180910390fd5b610ee66000611a27565b565b6000600660009054906101000a900473ffffffffffffffffffffffffffffffffffffffff16905090565b606060018054610f2190613294565b80601f0160208091040260200160405190810160405280929190818152602001828054610f4d90613294565b8015610f9a5780601f10610f6f57610100808354040283529160200191610f9a565b820191906000526020600020905b815481529060010190602001808311610f7d57829003601f168201915b5050505050905090565b610fb6610faf611621565b8383611aed565b5050565b60085481565b610fd1610fcb611621565b836116e2565b611010576040517f08c379a000000000000000000000000000000000000000000000000000000000815260040161100790612f46565b60405180910390fd5b61101c84848484611c5a565b50505050565b606061102d826115b5565b61106c576040517f08c379a000000000000000000000000000000000000000000000000000000000815260040161106390612ee6565b60405180910390fd5b6000611076611cb6565b9050600081511161109657604051806020016040528060008152506110c1565b806110a084611ccd565b6040516020016110b1929190612bf0565b6040516020818303038152906040525b915050919050565b600954341461110d576040517f08c379a000000000000000000000000000000000000000000000000000000000815260040161110490612f66565b60405180910390fd5b6007546008541115611154576040517f08c379a000000000000000000000000000000000000000000000000000000000815260040161114b90612d46565b60405180910390fd5b600a54600b60003373ffffffffffffffffffffffffffffffffffffffff1673ffffffffffffffffffffffffffffffffffffffff1681526020019081526020016000205411156111d8576040517f08c379a00000000000000000000000000000000000000000000000000000000081526004016111cf90612f06565b60405180910390fd5b600060085490506111e93382611e7a565b7fae5290d224a5a20c2ebad98803225e0ce8ec72a08be491017cf0324db413feb781338460405161121c93929190612fa1565b60405180910390a160016008546112339190613123565b6008819055506112438183611e98565b7f57f7789e04e67a1d42425c71a3865e1554c090f4b131d4870265ea8ade75880c8183604051611274929190612fdf565b60405180910390a16001600b60003373ffffffffffffffffffffffffffffffffffffffff1673ffffffffffffffffffffffffffffffffffffffff16815260200190815260200160002060008282546112cc9190613123565b92505081905550600d60405180608001604052808481526020013373ffffffffffffffffffffffffffffffffffffffff1681526020018381526020014281525090806001815401808255809150506001900390600052602060002090600402016000909190919091506000820151816000019080519060200190611351929190612305565b5060208201518160010160006101000a81548173ffffffffffffffffffffffffffffffffffffffff021916908373ffffffffffffffffffffffffffffffffffffffff160217905550604082015181600201556060820151816003015550505050565b600a5481565b60075481565b6000600560008473ffffffffffffffffffffffffffffffffffffffff1673ffffffffffffffffffffffffffffffffffffffff16815260200190815260200160002060008373ffffffffffffffffffffffffffffffffffffffff1673ffffffffffffffffffffffffffffffffffffffff16815260200190815260200160002060009054906101000a900460ff16905092915050565b61145b611621565b73ffffffffffffffffffffffffffffffffffffffff16611479610ee8565b73ffffffffffffffffffffffffffffffffffffffff16146114cf576040517f08c379a00000000000000000000000000000000000000000000000000000000081526004016114c690612ec6565b60405180910390fd5b600073ffffffffffffffffffffffffffffffffffffffff168173ffffffffffffffffffffffffffffffffffffffff16141561153f576040517f08c379a000000000000000000000000000000000000000000000000000000000815260040161153690612d66565b60405180910390fd5b61154881611a27565b50565b60007f01ffc9a7000000000000000000000000000000000000000000000000000000007bffffffffffffffffffffffffffffffffffffffffffffffffffffffff1916827bffffffffffffffffffffffffffffffffffffffffffffffffffffffff1916149050919050565b60008073ffffffffffffffffffffffffffffffffffffffff166002600084815260200190815260200160002060009054906101000a900473ffffffffffffffffffffffffffffffffffffffff1673ffffffffffffffffffffffffffffffffffffffff1614159050919050565b600033905090565b816004600083815260200190815260200160002060006101000a81548173ffffffffffffffffffffffffffffffffffffffff021916908373ffffffffffffffffffffffffffffffffffffffff160217905550808273ffffffffffffffffffffffffffffffffffffffff1661169c83610c0e565b73ffffffffffffffffffffffffffffffffffffffff167f8c5be1e5ebec7d5bd14f71427d1e84f3dd0314c0f7b2291e5b200ac8c7c3b92560405160405180910390a45050565b60006116ed826115b5565b61172c576040517f08c379a000000000000000000000000000000000000000000000000000000000815260040161172390612e06565b60405180910390fd5b600061173783610c0e565b90508073ffffffffffffffffffffffffffffffffffffffff168473ffffffffffffffffffffffffffffffffffffffff1614806117a657508373ffffffffffffffffffffffffffffffffffffffff1661178e846107ce565b73ffffffffffffffffffffffffffffffffffffffff16145b806117b757506117b681856113bf565b5b91505092915050565b8273ffffffffffffffffffffffffffffffffffffffff166117e082610c0e565b73ffffffffffffffffffffffffffffffffffffffff1614611836576040517f08c379a000000000000000000000000000000000000000000000000000000000815260040161182d90612d86565b60405180910390fd5b600073ffffffffffffffffffffffffffffffffffffffff168273ffffffffffffffffffffffffffffffffffffffff1614156118a6576040517f08c379a000000000000000000000000000000000000000000000000000000000815260040161189d90612dc6565b60405180910390fd5b6118b1838383611f0c565b6118bc600082611629565b6001600360008573ffffffffffffffffffffffffffffffffffffffff1673ffffffffffffffffffffffffffffffffffffffff168152602001908152602001600020600082825461190c91906131aa565b925050819055506001600360008473ffffffffffffffffffffffffffffffffffffffff1673ffffffffffffffffffffffffffffffffffffffff16815260200190815260200160002060008282546119639190613123565b92505081905550816002600083815260200190815260200160002060006101000a81548173ffffffffffffffffffffffffffffffffffffffff021916908373ffffffffffffffffffffffffffffffffffffffff160217905550808273ffffffffffffffffffffffffffffffffffffffff168473ffffffffffffffffffffffffffffffffffffffff167fddf252ad1be2c89b69c2b068fc378daa952ba7f163c4a11628f55a4df523b3ef60405160405180910390a4611a22838383611f11565b505050565b6000600660009054906101000a900473ffffffffffffffffffffffffffffffffffffffff16905081600660006101000a81548173ffffffffffffffffffffffffffffffffffffffff021916908373ffffffffffffffffffffffffffffffffffffffff1602179055508173ffffffffffffffffffffffffffffffffffffffff168173ffffffffffffffffffffffffffffffffffffffff167f8be0079c531659141344cd1fd0a4f28419497f9722a3daafe3b4186f6b6457e060405160405180910390a35050565b8173ffffffffffffffffffffffffffffffffffffffff168373ffffffffffffffffffffffffffffffffffffffff161415611b5c576040517f08c379a0000000000000000000000000000000000000000000000000000000008152600401611b5390612de6565b60405180910390fd5b80600560008573ffffffffffffffffffffffffffffffffffffffff1673ffffffffffffffffffffffffffffffffffffffff16815260200190815260200160002060008473ffffffffffffffffffffffffffffffffffffffff1673ffffffffffffffffffffffffffffffffffffffff16815260200190815260200160002060006101000a81548160ff0219169083151502179055508173ffffffffffffffffffffffffffffffffffffffff168373ffffffffffffffffffffffffffffffffffffffff167f17307eab39ab6107e8899845ad3d59bd9653f200f220920489ca2b5937696c3183604051611c4d9190612c9d565b60405180910390a3505050565b611c658484846117c0565b611c7184848484611f16565b611cb0576040517f08c379a0000000000000000000000000000000000000000000000000000000008152600401611ca790612d26565b60405180910390fd5b50505050565b606060405180602001604052806000815250905090565b60606000821415611d15576040518060400160405280600181526020017f30000000000000000000000000000000000000000000000000000000000000008152509050611e75565b600082905060005b60008214611d47578080611d30906132f7565b915050600a82611d409190613179565b9150611d1d565b60008167ffffffffffffffff811115611d89577f4e487b7100000000000000000000000000000000000000000000000000000000600052604160045260246000fd5b6040519080825280601f01601f191660200182016040528015611dbb5781602001600182028036833780820191505090505b5090505b60008514611e6e57600182611dd491906131aa565b9150600a85611de39190613340565b6030611def9190613123565b60f81b818381518110611e2b577f4e487b7100000000000000000000000000000000000000000000000000000000600052603260045260246000fd5b60200101907effffffffffffffffffffffffffffffffffffffffffffffffffffffffffffff1916908160001a905350600a85611e679190613179565b9450611dbf565b8093505050505b919050565b611e948282604051806020016040528060008152506120ad565b5050565b611ea1826115b5565b611ee0576040517f08c379a0000000000000000000000000000000000000000000000000000000008152600401611ed790612ee6565b60405180910390fd5b80600c60008481526020019081526020016000209080519060200190611f07929190612305565b505050565b505050565b505050565b6000611f378473ffffffffffffffffffffffffffffffffffffffff16612108565b156120a0578373ffffffffffffffffffffffffffffffffffffffff1663150b7a02611f60611621565b8786866040518563ffffffff1660e01b8152600401611f829493929190612c2f565b602060405180830381600087803b158015611f9c57600080fd5b505af1925050508015611fcd57506040513d601f19601f82011682018060405250810190611fca91906126b1565b60015b612050573d8060008114611ffd576040519150601f19603f3d011682016040523d82523d6000602084013e612002565b606091505b50600081511415612048576040517f08c379a000000000000000000000000000000000000000000000000000000000815260040161203f90612d26565b60405180910390fd5b805181602001fd5b63150b7a0260e01b7bffffffffffffffffffffffffffffffffffffffffffffffffffffffff1916817bffffffffffffffffffffffffffffffffffffffffffffffffffffffff1916149150506120a5565b600190505b949350505050565b6120b7838361212b565b6120c46000848484611f16565b612103576040517f08c379a00000000000000000000000000000000000000000000000000000000081526004016120fa90612d26565b60405180910390fd5b505050565b6000808273ffffffffffffffffffffffffffffffffffffffff163b119050919050565b600073ffffffffffffffffffffffffffffffffffffffff168273ffffffffffffffffffffffffffffffffffffffff16141561219b576040517f08c379a000000000000000000000000000000000000000000000000000000000815260040161219290612e86565b60405180910390fd5b6121a4816115b5565b156121e4576040517f08c379a00000000000000000000000000000000000000000000000000000000081526004016121db90612da6565b60405180910390fd5b6121f060008383611f0c565b6001600360008473ffffffffffffffffffffffffffffffffffffffff1673ffffffffffffffffffffffffffffffffffffffff16815260200190815260200160002060008282546122409190613123565b92505081905550816002600083815260200190815260200160002060006101000a81548173ffffffffffffffffffffffffffffffffffffffff021916908373ffffffffffffffffffffffffffffffffffffffff160217905550808273ffffffffffffffffffffffffffffffffffffffff16600073ffffffffffffffffffffffffffffffffffffffff167fddf252ad1be2c89b69c2b068fc378daa952ba7f163c4a11628f55a4df523b3ef60405160405180910390a461230160008383611f11565b5050565b82805461231190613294565b90600052602060002090601f016020900481019282612333576000855561237a565b82601f1061234c57805160ff191683800117855561237a565b8280016001018555821561237a579182015b8281111561237957825182559160200191906001019061235e565b5b509050612387919061238b565b5090565b5b808211156123a457600081600090555060010161238c565b5090565b60006123bb6123b684613034565b61300f565b9050828152602081018484840111156123d357600080fd5b6123de848285613252565b509392505050565b60006123f96123f484613065565b61300f565b90508281526020810184848401111561241157600080fd5b61241c848285613252565b509392505050565b60008135905061243381613911565b92915050565b60008135905061244881613928565b92915050565b60008135905061245d8161393f565b92915050565b6000815190506124728161393f565b92915050565b600082601f83011261248957600080fd5b81356124998482602086016123a8565b91505092915050565b600082601f8301126124b357600080fd5b81356124c38482602086016123e6565b91505092915050565b6000813590506124db81613956565b92915050565b6000602082840312156124f357600080fd5b600061250184828501612424565b91505092915050565b6000806040838503121561251d57600080fd5b600061252b85828601612424565b925050602061253c85828601612424565b9150509250929050565b60008060006060848603121561255b57600080fd5b600061256986828701612424565b935050602061257a86828701612424565b925050604061258b868287016124cc565b9150509250925092565b600080600080608085870312156125ab57600080fd5b60006125b987828801612424565b94505060206125ca87828801612424565b93505060406125db878288016124cc565b925050606085013567ffffffffffffffff8111156125f857600080fd5b61260487828801612478565b91505092959194509250565b6000806040838503121561262357600080fd5b600061263185828601612424565b925050602061264285828601612439565b9150509250929050565b6000806040838503121561265f57600080fd5b600061266d85828601612424565b925050602061267e858286016124cc565b9150509250929050565b60006020828403121561269a57600080fd5b60006126a88482850161244e565b91505092915050565b6000602082840312156126c357600080fd5b60006126d184828501612463565b91505092915050565b6000602082840312156126ec57600080fd5b600082013567ffffffffffffffff81111561270657600080fd5b612712848285016124a2565b91505092915050565b60006020828403121561272d57600080fd5b600061273b848285016124cc565b91505092915050565b60006127508383612b6f565b905092915050565b612761816131de565b82525050565b612770816131de565b82525050565b6000612781826130a6565b61278b81856130d4565b93508360208202850161279d85613096565b8060005b858110156127d957848403895281516127ba8582612744565b94506127c5836130c7565b925060208a019950506001810190506127a1565b50829750879550505050505092915050565b6127f4816131f0565b82525050565b6000612805826130b1565b61280f81856130e5565b935061281f818560208601613261565b6128288161342d565b840191505092915050565b600061283e826130bc565b61284881856130f6565b9350612858818560208601613261565b6128618161342d565b840191505092915050565b6000612877826130bc565b6128818185613107565b9350612891818560208601613261565b61289a8161342d565b840191505092915050565b60006128b0826130bc565b6128ba8185613118565b93506128ca818560208601613261565b80840191505092915050565b60006128e3603283613107565b91506128ee8261343e565b604082019050919050565b6000612906601583613107565b91506129118261348d565b602082019050919050565b6000612929602683613107565b9150612934826134b6565b604082019050919050565b600061294c602583613107565b915061295782613505565b604082019050919050565b600061296f601c83613107565b915061297a82613554565b602082019050919050565b6000612992602483613107565b915061299d8261357d565b604082019050919050565b60006129b5601983613107565b91506129c0826135cc565b602082019050919050565b60006129d8602c83613107565b91506129e3826135f5565b604082019050919050565b60006129fb603883613107565b9150612a0682613644565b604082019050919050565b6000612a1e602a83613107565b9150612a2982613693565b604082019050919050565b6000612a41602983613107565b9150612a4c826136e2565b604082019050919050565b6000612a64602083613107565b9150612a6f82613731565b602082019050919050565b6000612a87602c83613107565b9150612a928261375a565b604082019050919050565b6000612aaa602083613107565b9150612ab5826137a9565b602082019050919050565b6000612acd602f83613107565b9150612ad8826137d2565b604082019050919050565b6000612af0601d83613107565b9150612afb82613821565b602082019050919050565b6000612b13602183613107565b9150612b1e8261384a565b604082019050919050565b6000612b36603183613107565b9150612b4182613899565b604082019050919050565b6000612b59601083613107565b9150612b64826138e8565b602082019050919050565b60006080830160008301518482036000860152612b8c8282612833565b9150506020830151612ba16020860182612758565b506040830151612bb46040860182612bd2565b506060830151612bc76060860182612bd2565b508091505092915050565b612bdb81613248565b82525050565b612bea81613248565b82525050565b6000612bfc82856128a5565b9150612c0882846128a5565b91508190509392505050565b6000602082019050612c296000830184612767565b92915050565b6000608082019050612c446000830187612767565b612c516020830186612767565b612c5e6040830185612be1565b8181036060830152612c7081846127fa565b905095945050505050565b60006020820190508181036000830152612c958184612776565b905092915050565b6000602082019050612cb260008301846127eb565b92915050565b60006020820190508181036000830152612cd2818461286c565b905092915050565b60006080820190508181036000830152612cf4818761286c565b9050612d036020830186612767565b612d106040830185612be1565b612d1d6060830184612be1565b95945050505050565b60006020820190508181036000830152612d3f816128d6565b9050919050565b60006020820190508181036000830152612d5f816128f9565b9050919050565b60006020820190508181036000830152612d7f8161291c565b9050919050565b60006020820190508181036000830152612d9f8161293f565b9050919050565b60006020820190508181036000830152612dbf81612962565b9050919050565b60006020820190508181036000830152612ddf81612985565b9050919050565b60006020820190508181036000830152612dff816129a8565b9050919050565b60006020820190508181036000830152612e1f816129cb565b9050919050565b60006020820190508181036000830152612e3f816129ee565b9050919050565b60006020820190508181036000830152612e5f81612a11565b9050919050565b60006020820190508181036000830152612e7f81612a34565b9050919050565b60006020820190508181036000830152612e9f81612a57565b9050919050565b60006020820190508181036000830152612ebf81612a7a565b9050919050565b60006020820190508181036000830152612edf81612a9d565b9050919050565b60006020820190508181036000830152612eff81612ac0565b9050919050565b60006020820190508181036000830152612f1f81612ae3565b9050919050565b60006020820190508181036000830152612f3f81612b06565b9050919050565b60006020820190508181036000830152612f5f81612b29565b9050919050565b60006020820190508181036000830152612f7f81612b4c565b9050919050565b6000602082019050612f9b6000830184612be1565b92915050565b6000606082019050612fb66000830186612be1565b612fc36020830185612767565b8181036040830152612fd5818461286c565b9050949350505050565b6000604082019050612ff46000830185612be1565b8181036020830152613006818461286c565b90509392505050565b600061301961302a565b905061302582826132c6565b919050565b6000604051905090565b600067ffffffffffffffff82111561304f5761304e6133fe565b5b6130588261342d565b9050602081019050919050565b600067ffffffffffffffff8211156130805761307f6133fe565b5b6130898261342d565b9050602081019050919050565b6000819050602082019050919050565b600081519050919050565b600081519050919050565b600081519050919050565b6000602082019050919050565b600082825260208201905092915050565b600082825260208201905092915050565b600082825260208201905092915050565b600082825260208201905092915050565b600081905092915050565b600061312e82613248565b915061313983613248565b9250827fffffffffffffffffffffffffffffffffffffffffffffffffffffffffffffffff0382111561316e5761316d613371565b5b828201905092915050565b600061318482613248565b915061318f83613248565b92508261319f5761319e6133a0565b5b828204905092915050565b60006131b582613248565b91506131c083613248565b9250828210156131d3576131d2613371565b5b828203905092915050565b60006131e982613228565b9050919050565b60008115159050919050565b60007fffffffff0000000000000000000000000000000000000000000000000000000082169050919050565b600073ffffffffffffffffffffffffffffffffffffffff82169050919050565b6000819050919050565b82818337600083830152505050565b60005b8381101561327f578082015181840152602081019050613264565b8381111561328e576000848401525b50505050565b600060028204905060018216806132ac57607f821691505b602082108114156132c0576132bf6133cf565b5b50919050565b6132cf8261342d565b810181811067ffffffffffffffff821117156132ee576132ed6133fe565b5b80604052505050565b600061330282613248565b91507fffffffffffffffffffffffffffffffffffffffffffffffffffffffffffffffff82141561333557613334613371565b5b600182019050919050565b600061334b82613248565b915061335683613248565b925082613366576133656133a0565b5b828206905092915050565b7f4e487b7100000000000000000000000000000000000000000000000000000000600052601160045260246000fd5b7f4e487b7100000000000000000000000000000000000000000000000000000000600052601260045260246000fd5b7f4e487b7100000000000000000000000000000000000000000000000000000000600052602260045260246000fd5b7f4e487b7100000000000000000000000000000000000000000000000000000000600052604160045260246000fd5b6000601f19601f8301169050919050565b7f4552433732313a207472616e7366657220746f206e6f6e20455243373231526560008201527f63656976657220696d706c656d656e7465720000000000000000000000000000602082015250565b7f4d6178696d756d204e4654206973206d696e7465640000000000000000000000600082015250565b7f4f776e61626c653a206e6577206f776e657220697320746865207a65726f206160008201527f6464726573730000000000000000000000000000000000000000000000000000602082015250565b7f4552433732313a207472616e736665722066726f6d20696e636f72726563742060008201527f6f776e6572000000000000000000000000000000000000000000000000000000602082015250565b7f4552433732313a20746f6b656e20616c7265616479206d696e74656400000000600082015250565b7f4552433732313a207472616e7366657220746f20746865207a65726f2061646460008201527f7265737300000000000000000000000000000000000000000000000000000000602082015250565b7f4552433732313a20617070726f766520746f2063616c6c657200000000000000600082015250565b7f4552433732313a206f70657261746f7220717565727920666f72206e6f6e657860008201527f697374656e7420746f6b656e0000000000000000000000000000000000000000602082015250565b7f4552433732313a20617070726f76652063616c6c6572206973206e6f74206f7760008201527f6e6572206e6f7220617070726f76656420666f7220616c6c0000000000000000602082015250565b7f4552433732313a2062616c616e636520717565727920666f7220746865207a6560008201527f726f206164647265737300000000000000000000000000000000000000000000602082015250565b7f4552433732313a206f776e657220717565727920666f72206e6f6e657869737460008201527f656e7420746f6b656e0000000000000000000000000000000000000000000000602082015250565b7f4552433732313a206d696e7420746f20746865207a65726f2061646472657373600082015250565b7f4552433732313a20617070726f76656420717565727920666f72206e6f6e657860008201527f697374656e7420746f6b656e0000000000000000000000000000000000000000602082015250565b7f4f776e61626c653a2063616c6c6572206973206e6f7420746865206f776e6572600082015250565b7f4552433732314d657461646174613a2055524920717565727920666f72206e6f60008201527f6e6578697374656e7420746f6b656e0000000000000000000000000000000000602082015250565b7f4c696d69742065786365656420666f722074686973206163636f756e74000000600082015250565b7f4552433732313a20617070726f76616c20746f2063757272656e74206f776e6560008201527f7200000000000000000000000000000000000000000000000000000000000000602082015250565b7f4552433732313a207472616e736665722063616c6c6572206973206e6f74206f60008201527f776e6572206e6f7220617070726f766564000000000000000000000000000000602082015250565b7f57726f6e67206d696e742076616c756500000000000000000000000000000000600082015250565b61391a816131de565b811461392557600080fd5b50565b613931816131f0565b811461393c57600080fd5b50565b613948816131fc565b811461395357600080fd5b50565b61395f81613248565b811461396a57600080fd5b5056fea26469706673582212209b36a317cfcd7cfd5d56f7984fe6f1dd52fe110ff7c4a3a0fc917cc2d11c314064736f6c63430008040033",
  "linkReferences": {},
  "deployedLinkReferences": {}
}