{
  "_format": "hh-sol-artifact-1",
  "contractName": "NFTPunk",
  "sourceName": "contracts/NFTPunk.sol",
  "abi": [
    {
      "inputs": [
        {
          "internalType": "string",
          "name": "name",
          "type": "string"
        },
        {
          "internalType": "string",
          "name": "symbol",
          "type": "string"
        }
      ],
      "stateMutability": "nonpayable",
      "type": "constructor"
    },
    {
      "anonymous": false,
      "inputs": [
        {
          "indexed": true,
          "internalType": "address",
          "name": "owner",
          "type": "address"
        },
        {
          "indexed": true,
          "internalType": "address",
          "name": "approved",
          "type": "address"
        },
        {
          "indexed": true,
          "internalType": "uint256",
          "name": "tokenId",
          "type": "uint256"
        }
      ],
      "name": "Approval",
      "type": "event"
    },
    {
      "anonymous": false,
      "inputs": [
        {
          "indexed": true,
          "internalType": "address",
          "name": "owner",
          "type": "address"
        },
        {
          "indexed": true,
          "internalType": "address",
          "name": "operator",
          "type": "address"
        },
        {
          "indexed": false,
          "internalType": "bool",
          "name": "approved",
          "type": "bool"
        }
      ],
      "name": "ApprovalForAll",
      "type": "event"
    },
    {
      "anonymous": false,
      "inputs": [
        {
          "indexed": true,
          "internalType": "address",
          "name": "previousOwner",
          "type": "address"
        },
        {
          "indexed": true,
          "internalType": "address",
          "name": "newOwner",
          "type": "address"
        }
      ],
      "name": "OwnershipTransferred",
      "type": "event"
    },
    {
      "anonymous": false,
      "inputs": [
        {
          "indexed": true,
          "internalType": "address",
          "name": "from",
          "type": "address"
        },
        {
          "indexed": true,
          "internalType": "address",
          "name": "to",
          "type": "address"
        },
        {
          "indexed": true,
          "internalType": "uint256",
          "name": "tokenId",
          "type": "uint256"
        }
      ],
      "name": "Transfer",
      "type": "event"
    },
    {
      "anonymous": false,
      "inputs": [
        {
          "indexed": false,
          "internalType": "uint256",
          "name": "tokenId",
          "type": "uint256"
        },
        {
          "indexed": false,
          "internalType": "address",
          "name": "minter",
          "type": "address"
        },
        {
          "indexed": false,
          "internalType": "string",
          "name": "tokenURI",
          "type": "string"
        }
      ],
      "name": "nftMinted",
      "type": "event"
    },
    {
      "anonymous": false,
      "inputs": [
        {
          "indexed": false,
          "internalType": "uint256",
          "name": "tokenId",
          "type": "uint256"
        },
        {
          "indexed": false,
          "internalType": "string",
          "name": "tokenUri",
          "type": "string"
        }
      ],
      "name": "setTokenUri",
      "type": "event"
    },
    {
      "inputs": [
        {
          "internalType": "address",
          "name": "to",
          "type": "address"
        },
        {
          "internalType": "uint256",
          "name": "tokenId",
          "type": "uint256"
        }
      ],
      "name": "approve",
      "outputs": [],
      "stateMutability": "nonpayable",
      "type": "function"
    },
    {
      "inputs": [
        {
          "internalType": "address",
          "name": "owner",
          "type": "address"
        }
      ],
      "name": "balanceOf",
      "outputs": [
        {
          "internalType": "uint256",
          "name": "",
          "type": "uint256"
        }
      ],
      "stateMutability": "view",
      "type": "function"
    },
    {
      "inputs": [],
      "name": "getAllNFTDetails",
      "outputs": [
        {
          "components": [
            {
              "internalType": "string",
              "name": "uri",
              "type": "string"
            },
            {
              "internalType": "address",
              "name": "owner",
              "type": "address"
            },
            {
              "internalType": "uint256",
              "name": "tokenId",
              "type": "uint256"
            },
            {
              "internalType": "uint256",
              "name": "timeStamp",
              "type": "uint256"
            }
          ],
          "internalType": "struct NFTPunk.NFTDetails[]",
          "name": "",
          "type": "tuple[]"
        }
      ],
      "stateMutability": "nonpayable",
      "type": "function"
    },
    {
      "inputs": [
        {
          "internalType": "uint256",
          "name": "tokenId",
          "type": "uint256"
        }
      ],
      "name": "getApproved",
      "outputs": [
        {
          "internalType": "address",
          "name": "",
          "type": "address"
        }
      ],
      "stateMutability": "view",
      "type": "function"
    },
    {
      "inputs": [],
      "name": "getTotalNUmberDeployedNFT",
      "outputs": [
        {
          "internalType": "uint256",
          "name": "",
          "type": "uint256"
        }
      ],
      "stateMutability": "nonpayable",
      "type": "function"
    },
    {
      "inputs": [
        {
          "internalType": "address",
          "name": "owner",
          "type": "address"
        },
        {
          "internalType": "address",
          "name": "operator",
          "type": "address"
        }
      ],
      "name": "isApprovedForAll",
      "outputs": [
        {
          "internalType": "bool",
          "name": "",
          "type": "bool"
        }
      ],
      "stateMutability": "view",
      "type": "function"
    },
    {
      "inputs": [],
      "name": "maxNFT",
      "outputs": [
        {
          "internalType": "uint256",
          "name": "",
          "type": "uint256"
        }
      ],
      "stateMutability": "view",
      "type": "function"
    },
    {
      "inputs": [],
      "name": "maxNFTPerAccount",
      "outputs": [
        {
          "internalType": "uint256",
          "name": "",
          "type": "uint256"
        }
      ],
      "stateMutability": "view",
      "type": "function"
    },
    {
      "inputs": [
        {
          "internalType": "string",
          "name": "tokenURI",
          "type": "string"
        }
      ],
      "name": "mint",
      "outputs": [],
      "stateMutability": "payable",
      "type": "function"
    },
    {
      "inputs": [],
      "name": "name",
      "outputs": [
        {
          "internalType": "string",
          "name": "",
          "type": "string"
        }
      ],
      "stateMutability": "view",
      "type": "function"
    },
    {
      "inputs": [],
      "name": "owner",
      "outputs": [
        {
          "internalType": "address",
          "name": "",
          "type": "address"
        }
      ],
      "stateMutability": "view",
      "type": "function"
    },
    {
      "inputs": [
        {
          "internalType": "uint256",
          "name": "tokenId",
          "type": "uint256"
        }
      ],
      "name": "ownerOf",
      "outputs": [
        {
          "internalType": "address",
          "name": "",
          "type": "address"
        }
      ],
      "stateMutability": "view",
      "type": "function"
    },
    {
      "inputs": [],
      "name": "priceToMint",
      "outputs": [
        {
          "internalType": "uint256",
          "name": "",
          "type": "uint256"
        }
      ],
      "stateMutability": "view",
      "type": "function"
    },
    {
      "inputs": [],
      "name": "renounceOwnership",
      "outputs": [],
      "stateMutability": "nonpayable",
      "type": "function"
    },
    {
      "inputs": [
        {
          "internalType": "address",
          "name": "from",
          "type": "address"
        },
        {
          "internalType": "address",
          "name": "to",
          "type": "address"
        },
        {
          "internalType": "uint256",
          "name": "tokenId",
          "type": "uint256"
        }
      ],
      "name": "safeTransferFrom",
      "outputs": [],
      "stateMutability": "nonpayable",
      "type": "function"
    },
    {
      "inputs": [
        {
          "internalType": "address",
          "name": "from",
          "type": "address"
        },
        {
          "internalType": "address",
          "name": "to",
          "type": "address"
        },
        {
          "internalType": "uint256",
          "name": "tokenId",
          "type": "uint256"
        },
        {
          "internalType": "bytes",
          "name": "_data",
          "type": "bytes"
        }
      ],
      "name": "safeTransferFrom",
      "outputs": [],
      "stateMutability": "nonpayable",
      "type": "function"
    },
    {
      "inputs": [
        {
          "internalType": "address",
          "name": "operator",
          "type": "address"
        },
        {
          "internalType": "bool",
          "name": "approved",
          "type": "bool"
        }
      ],
      "name": "setApprovalForAll",
      "outputs": [],
      "stateMutability": "nonpayable",
      "type": "function"
    },
    {
      "inputs": [
        {
          "internalType": "bytes4",
          "name": "interfaceId",
          "type": "bytes4"
        }
      ],
      "name": "supportsInterface",
      "outputs": [
        {
          "internalType": "bool",
          "name": "",
          "type": "bool"
        }
      ],
      "stateMutability": "view",
      "type": "function"
    },
    {
      "inputs": [],
      "name": "symbol",
      "outputs": [
        {
          "internalType": "string",
          "name": "",
          "type": "string"
        }
      ],
      "stateMutability": "view",
      "type": "function"
    },
    {
      "inputs": [
        {
          "internalType": "uint256",
          "name": "tokenId",
          "type": "uint256"
        }
      ],
      "name": "tokenURI",
      "outputs": [
        {
          "internalType": "string",
          "name": "",
          "type": "string"
        }
      ],
      "stateMutability": "view",
      "type": "function"
    },
    {
      "inputs": [],
      "name": "totalSuply",
      "outputs": [
        {
          "internalType": "uint256",
          "name": "",
          "type": "uint256"
        }
      ],
      "stateMutability": "view",
      "type": "function"
    },
    {
      "inputs": [
        {
          "internalType": "address",
          "name": "from",
          "type": "address"
        },
        {
          "internalType": "address",
          "name": "to",
          "type": "address"
        },
        {
          "internalType": "uint256",
          "name": "tokenId",
          "type": "uint256"
        }
      ],
      "name": "transferFrom",
      "outputs": [],
      "stateMutability": "nonpayable",
      "type": "function"
    },
    {
      "inputs": [
        {
          "internalType": "address",
          "name": "newOwner",
          "type": "address"
        }
      ],
      "name": "transferOwnership",
      "outputs": [],
      "stateMutability": "nonpayable",
      "type": "function"
    }
  ],
  "bytecode": "0x60806040523480156200001157600080fd5b5060405162003b5638038062003b568339818101604052810190620000379190620002ac565b81818160009080519060200190620000519291906200018a565b5080600190805190602001906200006a9291906200018a565b5050506200008d62000081620000bc60201b60201c565b620000c460201b60201c565b6103e86007819055506000600881905550662386f26fc100006009819055506002600a8190555050506200048f565b600033905090565b6000600660009054906101000a900473ffffffffffffffffffffffffffffffffffffffff16905081600660006101000a81548173ffffffffffffffffffffffffffffffffffffffff021916908373ffffffffffffffffffffffffffffffffffffffff1602179055508173ffffffffffffffffffffffffffffffffffffffff168173ffffffffffffffffffffffffffffffffffffffff167f8be0079c531659141344cd1fd0a4f28419497f9722a3daafe3b4186f6b6457e060405160405180910390a35050565b8280546200019890620003b4565b90600052602060002090601f016020900481019282620001bc576000855562000208565b82601f10620001d757805160ff191683800117855562000208565b8280016001018555821562000208579182015b8281111562000207578251825591602001919060010190620001ea565b5b5090506200021791906200021b565b5090565b5b80821115620002365760008160009055506001016200021c565b5090565b6000620002516200024b8462000348565b6200031f565b9050828152602081018484840111156200026a57600080fd5b620002778482856200037e565b509392505050565b600082601f8301126200029157600080fd5b8151620002a38482602086016200023a565b91505092915050565b60008060408385031215620002c057600080fd5b600083015167ffffffffffffffff811115620002db57600080fd5b620002e9858286016200027f565b925050602083015167ffffffffffffffff8111156200030757600080fd5b62000315858286016200027f565b9150509250929050565b60006200032b6200033e565b9050620003398282620003ea565b919050565b6000604051905090565b600067ffffffffffffffff8211156200036657620003656200044f565b5b62000371826200047e565b9050602081019050919050565b60005b838110156200039e57808201518184015260208101905062000381565b83811115620003ae576000848401525b50505050565b60006002820490506001821680620003cd57607f821691505b60208210811415620003e457620003e362000420565b5b50919050565b620003f5826200047e565b810181811067ffffffffffffffff821117156200041757620004166200044f565b5b80604052505050565b7f4e487b7100000000000000000000000000000000000000000000000000000000600052602260045260246000fd5b7f4e487b7100000000000000000000000000000000000000000000000000000000600052604160045260246000fd5b6000601f19601f8301169050919050565b6136b7806200049f6000396000f3fe6080604052600436106101405760003560e01c8063715018a6116100b6578063c87b56dd1161006f578063c87b56dd1461044a578063d85d3d2714610487578063daef8419146104a3578063e456b01c146104ce578063e985e9c5146104f9578063f2fde38b1461053657610140565b8063715018a6146103605780638da5cb5b1461037757806395d89b41146103a2578063a22cb465146103cd578063a2a96799146103f6578063b88d4fde1461042157610140565b806323b872dd1161010857806323b872dd1461023e57806342842e0e1461026757806343e3dbe6146102905780634dc1dbec146102bb5780636352211e146102e657806370a082311461032357610140565b806301ffc9a71461014557806306fdde0314610182578063081812fc146101ad578063095ea7b3146101ea57806312dc49cd14610213575b600080fd5b34801561015157600080fd5b5061016c600480360381019061016791906123e8565b61055f565b60405161017991906129fd565b60405180910390f35b34801561018e57600080fd5b50610197610641565b6040516101a49190612a18565b60405180910390f35b3480156101b957600080fd5b506101d460048036038101906101cf919061247b565b6106d3565b6040516101e19190612974565b60405180910390f35b3480156101f657600080fd5b50610211600480360381019061020c91906123ac565b610758565b005b34801561021f57600080fd5b50610228610870565b6040516102359190612c9a565b60405180910390f35b34801561024a57600080fd5b50610265600480360381019061026091906122a6565b61087a565b005b34801561027357600080fd5b5061028e600480360381019061028991906122a6565b6108da565b005b34801561029c57600080fd5b506102a56108fa565b6040516102b291906129db565b60405180910390f35b3480156102c757600080fd5b506102d0610a55565b6040516102dd9190612c9a565b60405180910390f35b3480156102f257600080fd5b5061030d6004803603810190610308919061247b565b610a5b565b60405161031a9190612974565b60405180910390f35b34801561032f57600080fd5b5061034a60048036038101906103459190612241565b610b0d565b6040516103579190612c9a565b60405180910390f35b34801561036c57600080fd5b50610375610bc5565b005b34801561038357600080fd5b5061038c610c4d565b6040516103999190612974565b60405180910390f35b3480156103ae57600080fd5b506103b7610c77565b6040516103c49190612a18565b60405180910390f35b3480156103d957600080fd5b506103f460048036038101906103ef9190612370565b610d09565b005b34801561040257600080fd5b5061040b610d1f565b6040516104189190612c9a565b60405180910390f35b34801561042d57600080fd5b50610448600480360381019061044391906122f5565b610d25565b005b34801561045657600080fd5b50610471600480360381019061046c919061247b565b610d87565b60405161047e9190612a18565b60405180910390f35b6104a1600480360381019061049c919061243a565b610e2e565b005b3480156104af57600080fd5b506104b8611113565b6040516104c59190612c9a565b60405180910390f35b3480156104da57600080fd5b506104e3611119565b6040516104f09190612c9a565b60405180910390f35b34801561050557600080fd5b50610520600480360381019061051b919061226a565b61111f565b60405161052d91906129fd565b60405180910390f35b34801561054257600080fd5b5061055d60048036038101906105589190612241565b6111b3565b005b60007f80ac58cd000000000000000000000000000000000000000000000000000000007bffffffffffffffffffffffffffffffffffffffffffffffffffffffff1916827bffffffffffffffffffffffffffffffffffffffffffffffffffffffff1916148061062a57507f5b5e139f000000000000000000000000000000000000000000000000000000007bffffffffffffffffffffffffffffffffffffffffffffffffffffffff1916827bffffffffffffffffffffffffffffffffffffffffffffffffffffffff1916145b8061063a5750610639826112ab565b5b9050919050565b60606000805461065090612fa8565b80601f016020809104026020016040519081016040528092919081815260200182805461067c90612fa8565b80156106c95780601f1061069e576101008083540402835291602001916106c9565b820191906000526020600020905b8154815290600101906020018083116106ac57829003601f168201915b5050505050905090565b60006106de82611315565b61071d576040517f08c379a000000000000000000000000000000000000000000000000000000000815260040161071490612bba565b60405180910390fd5b6004600083815260200190815260200160002060009054906101000a900473ffffffffffffffffffffffffffffffffffffffff169050919050565b600061076382610a5b565b90508073ffffffffffffffffffffffffffffffffffffffff168373ffffffffffffffffffffffffffffffffffffffff1614156107d4576040517f08c379a00000000000000000000000000000000000000000000000000000000081526004016107cb90612c3a565b60405180910390fd5b8073ffffffffffffffffffffffffffffffffffffffff166107f3611381565b73ffffffffffffffffffffffffffffffffffffffff16148061082257506108218161081c611381565b61111f565b5b610861576040517f08c379a000000000000000000000000000000000000000000000000000000000815260040161085890612b3a565b60405180910390fd5b61086b8383611389565b505050565b6000600854905090565b61088b610885611381565b82611442565b6108ca576040517f08c379a00000000000000000000000000000000000000000000000000000000081526004016108c190612c5a565b60405180910390fd5b6108d5838383611520565b505050565b6108f583838360405180602001604052806000815250610d25565b505050565b6060600d805480602002602001604051908101604052809291908181526020016000905b82821015610a4c578382906000526020600020906004020160405180608001604052908160008201805461095190612fa8565b80601f016020809104026020016040519081016040528092919081815260200182805461097d90612fa8565b80156109ca5780601f1061099f576101008083540402835291602001916109ca565b820191906000526020600020905b8154815290600101906020018083116109ad57829003601f168201915b505050505081526020016001820160009054906101000a900473ffffffffffffffffffffffffffffffffffffffff1673ffffffffffffffffffffffffffffffffffffffff1673ffffffffffffffffffffffffffffffffffffffff168152602001600282015481526020016003820154815250508152602001906001019061091e565b50505050905090565b60095481565b6000806002600084815260200190815260200160002060009054906101000a900473ffffffffffffffffffffffffffffffffffffffff169050600073ffffffffffffffffffffffffffffffffffffffff168173ffffffffffffffffffffffffffffffffffffffff161415610b04576040517f08c379a0000000000000000000000000000000000000000000000000000000008152600401610afb90612b7a565b60405180910390fd5b80915050919050565b60008073ffffffffffffffffffffffffffffffffffffffff168273ffffffffffffffffffffffffffffffffffffffff161415610b7e576040517f08c379a0000000000000000000000000000000000000000000000000000000008152600401610b7590612b5a565b60405180910390fd5b600360008373ffffffffffffffffffffffffffffffffffffffff1673ffffffffffffffffffffffffffffffffffffffff168152602001908152602001600020549050919050565b610bcd611381565b73ffffffffffffffffffffffffffffffffffffffff16610beb610c4d565b73ffffffffffffffffffffffffffffffffffffffff1614610c41576040517f08c379a0000000000000000000000000000000000000000000000000000000008152600401610c3890612bda565b60405180910390fd5b610c4b6000611787565b565b6000600660009054906101000a900473ffffffffffffffffffffffffffffffffffffffff16905090565b606060018054610c8690612fa8565b80601f0160208091040260200160405190810160405280929190818152602001828054610cb290612fa8565b8015610cff5780601f10610cd457610100808354040283529160200191610cff565b820191906000526020600020905b815481529060010190602001808311610ce257829003601f168201915b5050505050905090565b610d1b610d14611381565b838361184d565b5050565b60085481565b610d36610d30611381565b83611442565b610d75576040517f08c379a0000000000000000000000000000000000000000000000000000000008152600401610d6c90612c5a565b60405180910390fd5b610d81848484846119ba565b50505050565b6060610d9282611315565b610dd1576040517f08c379a0000000000000000000000000000000000000000000000000000000008152600401610dc890612bfa565b60405180910390fd5b6000610ddb611a16565b90506000815111610dfb5760405180602001604052806000815250610e26565b80610e0584611a2d565b604051602001610e16929190612950565b6040516020818303038152906040525b915050919050565b6009543414610e72576040517f08c379a0000000000000000000000000000000000000000000000000000000008152600401610e6990612c7a565b60405180910390fd5b6007546008541115610eb9576040517f08c379a0000000000000000000000000000000000000000000000000000000008152600401610eb090612a5a565b60405180910390fd5b600a54600b60003373ffffffffffffffffffffffffffffffffffffffff1673ffffffffffffffffffffffffffffffffffffffff168152602001908152602001600020541115610f3d576040517f08c379a0000000000000000000000000000000000000000000000000000000008152600401610f3490612c1a565b60405180910390fd5b60006008549050610f4e3382611bda565b7fae5290d224a5a20c2ebad98803225e0ce8ec72a08be491017cf0324db413feb7813384604051610f8193929190612cb5565b60405180910390a16001600854610f989190612e37565b600881905550610fa88183611bf8565b7f57f7789e04e67a1d42425c71a3865e1554c090f4b131d4870265ea8ade75880c8183604051610fd9929190612cf3565b60405180910390a16001600a54610ff09190612e37565b600b60003373ffffffffffffffffffffffffffffffffffffffff1673ffffffffffffffffffffffffffffffffffffffff16815260200190815260200160002081905550600d60405180608001604052808481526020013373ffffffffffffffffffffffffffffffffffffffff16815260200183815260200142815250908060018154018082558091505060019003906000526020600020906004020160009091909190915060008201518160000190805190602001906110b1929190612065565b5060208201518160010160006101000a81548173ffffffffffffffffffffffffffffffffffffffff021916908373ffffffffffffffffffffffffffffffffffffffff160217905550604082015181600201556060820151816003015550505050565b600a5481565b60075481565b6000600560008473ffffffffffffffffffffffffffffffffffffffff1673ffffffffffffffffffffffffffffffffffffffff16815260200190815260200160002060008373ffffffffffffffffffffffffffffffffffffffff1673ffffffffffffffffffffffffffffffffffffffff16815260200190815260200160002060009054906101000a900460ff16905092915050565b6111bb611381565b73ffffffffffffffffffffffffffffffffffffffff166111d9610c4d565b73ffffffffffffffffffffffffffffffffffffffff161461122f576040517f08c379a000000000000000000000000000000000000000000000000000000000815260040161122690612bda565b60405180910390fd5b600073ffffffffffffffffffffffffffffffffffffffff168173ffffffffffffffffffffffffffffffffffffffff16141561129f576040517f08c379a000000000000000000000000000000000000000000000000000000000815260040161129690612a7a565b60405180910390fd5b6112a881611787565b50565b60007f01ffc9a7000000000000000000000000000000000000000000000000000000007bffffffffffffffffffffffffffffffffffffffffffffffffffffffff1916827bffffffffffffffffffffffffffffffffffffffffffffffffffffffff1916149050919050565b60008073ffffffffffffffffffffffffffffffffffffffff166002600084815260200190815260200160002060009054906101000a900473ffffffffffffffffffffffffffffffffffffffff1673ffffffffffffffffffffffffffffffffffffffff1614159050919050565b600033905090565b816004600083815260200190815260200160002060006101000a81548173ffffffffffffffffffffffffffffffffffffffff021916908373ffffffffffffffffffffffffffffffffffffffff160217905550808273ffffffffffffffffffffffffffffffffffffffff166113fc83610a5b565b73ffffffffffffffffffffffffffffffffffffffff167f8c5be1e5ebec7d5bd14f71427d1e84f3dd0314c0f7b2291e5b200ac8c7c3b92560405160405180910390a45050565b600061144d82611315565b61148c576040517f08c379a000000000000000000000000000000000000000000000000000000000815260040161148390612b1a565b60405180910390fd5b600061149783610a5b565b90508073ffffffffffffffffffffffffffffffffffffffff168473ffffffffffffffffffffffffffffffffffffffff16148061150657508373ffffffffffffffffffffffffffffffffffffffff166114ee846106d3565b73ffffffffffffffffffffffffffffffffffffffff16145b806115175750611516818561111f565b5b91505092915050565b8273ffffffffffffffffffffffffffffffffffffffff1661154082610a5b565b73ffffffffffffffffffffffffffffffffffffffff1614611596576040517f08c379a000000000000000000000000000000000000000000000000000000000815260040161158d90612a9a565b60405180910390fd5b600073ffffffffffffffffffffffffffffffffffffffff168273ffffffffffffffffffffffffffffffffffffffff161415611606576040517f08c379a00000000000000000000000000000000000000000000000000000000081526004016115fd90612ada565b60405180910390fd5b611611838383611c6c565b61161c600082611389565b6001600360008573ffffffffffffffffffffffffffffffffffffffff1673ffffffffffffffffffffffffffffffffffffffff168152602001908152602001600020600082825461166c9190612ebe565b925050819055506001600360008473ffffffffffffffffffffffffffffffffffffffff1673ffffffffffffffffffffffffffffffffffffffff16815260200190815260200160002060008282546116c39190612e37565b92505081905550816002600083815260200190815260200160002060006101000a81548173ffffffffffffffffffffffffffffffffffffffff021916908373ffffffffffffffffffffffffffffffffffffffff160217905550808273ffffffffffffffffffffffffffffffffffffffff168473ffffffffffffffffffffffffffffffffffffffff167fddf252ad1be2c89b69c2b068fc378daa952ba7f163c4a11628f55a4df523b3ef60405160405180910390a4611782838383611c71565b505050565b6000600660009054906101000a900473ffffffffffffffffffffffffffffffffffffffff16905081600660006101000a81548173ffffffffffffffffffffffffffffffffffffffff021916908373ffffffffffffffffffffffffffffffffffffffff1602179055508173ffffffffffffffffffffffffffffffffffffffff168173ffffffffffffffffffffffffffffffffffffffff167f8be0079c531659141344cd1fd0a4f28419497f9722a3daafe3b4186f6b6457e060405160405180910390a35050565b8173ffffffffffffffffffffffffffffffffffffffff168373ffffffffffffffffffffffffffffffffffffffff1614156118bc576040517f08c379a00000000000000000000000000000000000000000000000000000000081526004016118b390612afa565b60405180910390fd5b80600560008573ffffffffffffffffffffffffffffffffffffffff1673ffffffffffffffffffffffffffffffffffffffff16815260200190815260200160002060008473ffffffffffffffffffffffffffffffffffffffff1673ffffffffffffffffffffffffffffffffffffffff16815260200190815260200160002060006101000a81548160ff0219169083151502179055508173ffffffffffffffffffffffffffffffffffffffff168373ffffffffffffffffffffffffffffffffffffffff167f17307eab39ab6107e8899845ad3d59bd9653f200f220920489ca2b5937696c31836040516119ad91906129fd565b60405180910390a3505050565b6119c5848484611520565b6119d184848484611c76565b611a10576040517f08c379a0000000000000000000000000000000000000000000000000000000008152600401611a0790612a3a565b60405180910390fd5b50505050565b606060405180602001604052806000815250905090565b60606000821415611a75576040518060400160405280600181526020017f30000000000000000000000000000000000000000000000000000000000000008152509050611bd5565b600082905060005b60008214611aa7578080611a909061300b565b915050600a82611aa09190612e8d565b9150611a7d565b60008167ffffffffffffffff811115611ae9577f4e487b7100000000000000000000000000000000000000000000000000000000600052604160045260246000fd5b6040519080825280601f01601f191660200182016040528015611b1b5781602001600182028036833780820191505090505b5090505b60008514611bce57600182611b349190612ebe565b9150600a85611b439190613054565b6030611b4f9190612e37565b60f81b818381518110611b8b577f4e487b7100000000000000000000000000000000000000000000000000000000600052603260045260246000fd5b60200101907effffffffffffffffffffffffffffffffffffffffffffffffffffffffffffff1916908160001a905350600a85611bc79190612e8d565b9450611b1f565b8093505050505b919050565b611bf4828260405180602001604052806000815250611e0d565b5050565b611c0182611315565b611c40576040517f08c379a0000000000000000000000000000000000000000000000000000000008152600401611c3790612bfa565b60405180910390fd5b80600c60008481526020019081526020016000209080519060200190611c67929190612065565b505050565b505050565b505050565b6000611c978473ffffffffffffffffffffffffffffffffffffffff16611e68565b15611e00578373ffffffffffffffffffffffffffffffffffffffff1663150b7a02611cc0611381565b8786866040518563ffffffff1660e01b8152600401611ce2949392919061298f565b602060405180830381600087803b158015611cfc57600080fd5b505af1925050508015611d2d57506040513d601f19601f82011682018060405250810190611d2a9190612411565b60015b611db0573d8060008114611d5d576040519150601f19603f3d011682016040523d82523d6000602084013e611d62565b606091505b50600081511415611da8576040517f08c379a0000000000000000000000000000000000000000000000000000000008152600401611d9f90612a3a565b60405180910390fd5b805181602001fd5b63150b7a0260e01b7bffffffffffffffffffffffffffffffffffffffffffffffffffffffff1916817bffffffffffffffffffffffffffffffffffffffffffffffffffffffff191614915050611e05565b600190505b949350505050565b611e178383611e8b565b611e246000848484611c76565b611e63576040517f08c379a0000000000000000000000000000000000000000000000000000000008152600401611e5a90612a3a565b60405180910390fd5b505050565b6000808273ffffffffffffffffffffffffffffffffffffffff163b119050919050565b600073ffffffffffffffffffffffffffffffffffffffff168273ffffffffffffffffffffffffffffffffffffffff161415611efb576040517f08c379a0000000000000000000000000000000000000000000000000000000008152600401611ef290612b9a565b60405180910390fd5b611f0481611315565b15611f44576040517f08c379a0000000000000000000000000000000000000000000000000000000008152600401611f3b90612aba565b60405180910390fd5b611f5060008383611c6c565b6001600360008473ffffffffffffffffffffffffffffffffffffffff1673ffffffffffffffffffffffffffffffffffffffff1681526020019081526020016000206000828254611fa09190612e37565b92505081905550816002600083815260200190815260200160002060006101000a81548173ffffffffffffffffffffffffffffffffffffffff021916908373ffffffffffffffffffffffffffffffffffffffff160217905550808273ffffffffffffffffffffffffffffffffffffffff16600073ffffffffffffffffffffffffffffffffffffffff167fddf252ad1be2c89b69c2b068fc378daa952ba7f163c4a11628f55a4df523b3ef60405160405180910390a461206160008383611c71565b5050565b82805461207190612fa8565b90600052602060002090601f01602090048101928261209357600085556120da565b82601f106120ac57805160ff19168380011785556120da565b828001600101855582156120da579182015b828111156120d95782518255916020019190600101906120be565b5b5090506120e791906120eb565b5090565b5b808211156121045760008160009055506001016120ec565b5090565b600061211b61211684612d48565b612d23565b90508281526020810184848401111561213357600080fd5b61213e848285612f66565b509392505050565b600061215961215484612d79565b612d23565b90508281526020810184848401111561217157600080fd5b61217c848285612f66565b509392505050565b60008135905061219381613625565b92915050565b6000813590506121a88161363c565b92915050565b6000813590506121bd81613653565b92915050565b6000815190506121d281613653565b92915050565b600082601f8301126121e957600080fd5b81356121f9848260208601612108565b91505092915050565b600082601f83011261221357600080fd5b8135612223848260208601612146565b91505092915050565b60008135905061223b8161366a565b92915050565b60006020828403121561225357600080fd5b600061226184828501612184565b91505092915050565b6000806040838503121561227d57600080fd5b600061228b85828601612184565b925050602061229c85828601612184565b9150509250929050565b6000806000606084860312156122bb57600080fd5b60006122c986828701612184565b93505060206122da86828701612184565b92505060406122eb8682870161222c565b9150509250925092565b6000806000806080858703121561230b57600080fd5b600061231987828801612184565b945050602061232a87828801612184565b935050604061233b8782880161222c565b925050606085013567ffffffffffffffff81111561235857600080fd5b612364878288016121d8565b91505092959194509250565b6000806040838503121561238357600080fd5b600061239185828601612184565b92505060206123a285828601612199565b9150509250929050565b600080604083850312156123bf57600080fd5b60006123cd85828601612184565b92505060206123de8582860161222c565b9150509250929050565b6000602082840312156123fa57600080fd5b6000612408848285016121ae565b91505092915050565b60006020828403121561242357600080fd5b6000612431848285016121c3565b91505092915050565b60006020828403121561244c57600080fd5b600082013567ffffffffffffffff81111561246657600080fd5b61247284828501612202565b91505092915050565b60006020828403121561248d57600080fd5b600061249b8482850161222c565b91505092915050565b60006124b083836128cf565b905092915050565b6124c181612ef2565b82525050565b6124d081612ef2565b82525050565b60006124e182612dba565b6124eb8185612de8565b9350836020820285016124fd85612daa565b8060005b85811015612539578484038952815161251a85826124a4565b945061252583612ddb565b925060208a01995050600181019050612501565b50829750879550505050505092915050565b61255481612f04565b82525050565b600061256582612dc5565b61256f8185612df9565b935061257f818560208601612f75565b61258881613141565b840191505092915050565b600061259e82612dd0565b6125a88185612e0a565b93506125b8818560208601612f75565b6125c181613141565b840191505092915050565b60006125d782612dd0565b6125e18185612e1b565b93506125f1818560208601612f75565b6125fa81613141565b840191505092915050565b600061261082612dd0565b61261a8185612e2c565b935061262a818560208601612f75565b80840191505092915050565b6000612643603283612e1b565b915061264e82613152565b604082019050919050565b6000612666601583612e1b565b9150612671826131a1565b602082019050919050565b6000612689602683612e1b565b9150612694826131ca565b604082019050919050565b60006126ac602583612e1b565b91506126b782613219565b604082019050919050565b60006126cf601c83612e1b565b91506126da82613268565b602082019050919050565b60006126f2602483612e1b565b91506126fd82613291565b604082019050919050565b6000612715601983612e1b565b9150612720826132e0565b602082019050919050565b6000612738602c83612e1b565b915061274382613309565b604082019050919050565b600061275b603883612e1b565b915061276682613358565b604082019050919050565b600061277e602a83612e1b565b9150612789826133a7565b604082019050919050565b60006127a1602983612e1b565b91506127ac826133f6565b604082019050919050565b60006127c4602083612e1b565b91506127cf82613445565b602082019050919050565b60006127e7602c83612e1b565b91506127f28261346e565b604082019050919050565b600061280a602083612e1b565b9150612815826134bd565b602082019050919050565b600061282d602f83612e1b565b9150612838826134e6565b604082019050919050565b6000612850601d83612e1b565b915061285b82613535565b602082019050919050565b6000612873602183612e1b565b915061287e8261355e565b604082019050919050565b6000612896603183612e1b565b91506128a1826135ad565b604082019050919050565b60006128b9601083612e1b565b91506128c4826135fc565b602082019050919050565b600060808301600083015184820360008601526128ec8282612593565b915050602083015161290160208601826124b8565b5060408301516129146040860182612932565b5060608301516129276060860182612932565b508091505092915050565b61293b81612f5c565b82525050565b61294a81612f5c565b82525050565b600061295c8285612605565b91506129688284612605565b91508190509392505050565b600060208201905061298960008301846124c7565b92915050565b60006080820190506129a460008301876124c7565b6129b160208301866124c7565b6129be6040830185612941565b81810360608301526129d0818461255a565b905095945050505050565b600060208201905081810360008301526129f581846124d6565b905092915050565b6000602082019050612a12600083018461254b565b92915050565b60006020820190508181036000830152612a3281846125cc565b905092915050565b60006020820190508181036000830152612a5381612636565b9050919050565b60006020820190508181036000830152612a7381612659565b9050919050565b60006020820190508181036000830152612a938161267c565b9050919050565b60006020820190508181036000830152612ab38161269f565b9050919050565b60006020820190508181036000830152612ad3816126c2565b9050919050565b60006020820190508181036000830152612af3816126e5565b9050919050565b60006020820190508181036000830152612b1381612708565b9050919050565b60006020820190508181036000830152612b338161272b565b9050919050565b60006020820190508181036000830152612b538161274e565b9050919050565b60006020820190508181036000830152612b7381612771565b9050919050565b60006020820190508181036000830152612b9381612794565b9050919050565b60006020820190508181036000830152612bb3816127b7565b9050919050565b60006020820190508181036000830152612bd3816127da565b9050919050565b60006020820190508181036000830152612bf3816127fd565b9050919050565b60006020820190508181036000830152612c1381612820565b9050919050565b60006020820190508181036000830152612c3381612843565b9050919050565b60006020820190508181036000830152612c5381612866565b9050919050565b60006020820190508181036000830152612c7381612889565b9050919050565b60006020820190508181036000830152612c93816128ac565b9050919050565b6000602082019050612caf6000830184612941565b92915050565b6000606082019050612cca6000830186612941565b612cd760208301856124c7565b8181036040830152612ce981846125cc565b9050949350505050565b6000604082019050612d086000830185612941565b8181036020830152612d1a81846125cc565b90509392505050565b6000612d2d612d3e565b9050612d398282612fda565b919050565b6000604051905090565b600067ffffffffffffffff821115612d6357612d62613112565b5b612d6c82613141565b9050602081019050919050565b600067ffffffffffffffff821115612d9457612d93613112565b5b612d9d82613141565b9050602081019050919050565b6000819050602082019050919050565b600081519050919050565b600081519050919050565b600081519050919050565b6000602082019050919050565b600082825260208201905092915050565b600082825260208201905092915050565b600082825260208201905092915050565b600082825260208201905092915050565b600081905092915050565b6000612e4282612f5c565b9150612e4d83612f5c565b9250827fffffffffffffffffffffffffffffffffffffffffffffffffffffffffffffffff03821115612e8257612e81613085565b5b828201905092915050565b6000612e9882612f5c565b9150612ea383612f5c565b925082612eb357612eb26130b4565b5b828204905092915050565b6000612ec982612f5c565b9150612ed483612f5c565b925082821015612ee757612ee6613085565b5b828203905092915050565b6000612efd82612f3c565b9050919050565b60008115159050919050565b60007fffffffff0000000000000000000000000000000000000000000000000000000082169050919050565b600073ffffffffffffffffffffffffffffffffffffffff82169050919050565b6000819050919050565b82818337600083830152505050565b60005b83811015612f93578082015181840152602081019050612f78565b83811115612fa2576000848401525b50505050565b60006002820490506001821680612fc057607f821691505b60208210811415612fd457612fd36130e3565b5b50919050565b612fe382613141565b810181811067ffffffffffffffff8211171561300257613001613112565b5b80604052505050565b600061301682612f5c565b91507fffffffffffffffffffffffffffffffffffffffffffffffffffffffffffffffff82141561304957613048613085565b5b600182019050919050565b600061305f82612f5c565b915061306a83612f5c565b92508261307a576130796130b4565b5b828206905092915050565b7f4e487b7100000000000000000000000000000000000000000000000000000000600052601160045260246000fd5b7f4e487b7100000000000000000000000000000000000000000000000000000000600052601260045260246000fd5b7f4e487b7100000000000000000000000000000000000000000000000000000000600052602260045260246000fd5b7f4e487b7100000000000000000000000000000000000000000000000000000000600052604160045260246000fd5b6000601f19601f8301169050919050565b7f4552433732313a207472616e7366657220746f206e6f6e20455243373231526560008201527f63656976657220696d706c656d656e7465720000000000000000000000000000602082015250565b7f4d6178696d756d204e4654206973206d696e7465640000000000000000000000600082015250565b7f4f776e61626c653a206e6577206f776e657220697320746865207a65726f206160008201527f6464726573730000000000000000000000000000000000000000000000000000602082015250565b7f4552433732313a207472616e736665722066726f6d20696e636f72726563742060008201527f6f776e6572000000000000000000000000000000000000000000000000000000602082015250565b7f4552433732313a20746f6b656e20616c7265616479206d696e74656400000000600082015250565b7f4552433732313a207472616e7366657220746f20746865207a65726f2061646460008201527f7265737300000000000000000000000000000000000000000000000000000000602082015250565b7f4552433732313a20617070726f766520746f2063616c6c657200000000000000600082015250565b7f4552433732313a206f70657261746f7220717565727920666f72206e6f6e657860008201527f697374656e7420746f6b656e0000000000000000000000000000000000000000602082015250565b7f4552433732313a20617070726f76652063616c6c6572206973206e6f74206f7760008201527f6e6572206e6f7220617070726f76656420666f7220616c6c0000000000000000602082015250565b7f4552433732313a2062616c616e636520717565727920666f7220746865207a6560008201527f726f206164647265737300000000000000000000000000000000000000000000602082015250565b7f4552433732313a206f776e657220717565727920666f72206e6f6e657869737460008201527f656e7420746f6b656e0000000000000000000000000000000000000000000000602082015250565b7f4552433732313a206d696e7420746f20746865207a65726f2061646472657373600082015250565b7f4552433732313a20617070726f76656420717565727920666f72206e6f6e657860008201527f697374656e7420746f6b656e0000000000000000000000000000000000000000602082015250565b7f4f776e61626c653a2063616c6c6572206973206e6f7420746865206f776e6572600082015250565b7f4552433732314d657461646174613a2055524920717565727920666f72206e6f60008201527f6e6578697374656e7420746f6b656e0000000000000000000000000000000000602082015250565b7f4c696d69742065786365656420666f722074686973206163636f756e74000000600082015250565b7f4552433732313a20617070726f76616c20746f2063757272656e74206f776e6560008201527f7200000000000000000000000000000000000000000000000000000000000000602082015250565b7f4552433732313a207472616e736665722063616c6c6572206973206e6f74206f60008201527f776e6572206e6f7220617070726f766564000000000000000000000000000000602082015250565b7f57726f6e67206d696e742076616c756500000000000000000000000000000000600082015250565b61362e81612ef2565b811461363957600080fd5b50565b61364581612f04565b811461365057600080fd5b50565b61365c81612f10565b811461366757600080fd5b50565b61367381612f5c565b811461367e57600080fd5b5056fea264697066735822122080fbdf50bdb71d13b07e0cfc3ea1824248d86db011124a8c9d1472c4b5f61dea64736f6c63430008040033",
  "linkReferences": {},
  "deployedLinkReferences": {}
}